:1000000081D0002035A401002341020021A4010079
:1000100021A4010021A4010021A40100000000008E
:10002000000000000000000000000000F1A5010039
:1000300021A40100000000009DA5010021A40100F1
:10004000EDA701007B950200EDA70100EDA70100DF
:10005000EDA70100EDA70100EDA70100EDA701004C
:100060004B950200EDA70100EDA701006595020088
:10007000EDA70100EDA70100EDA70100EDA701002C
:10008000EDA70100EDA70100EDA70100EDA701001C
:10009000EDA70100EDA70100EDA70100EDA701000C
:1000A000EDA70100EDA70100EDA70100EDA70100FC
:1000B000EDA70100EDA70100EDA70100EDA70100EC
:1000C000EDA70100EDA70100EDA70100EDA70100DC
:0C00D000EDA70100EDA70100EDA7010065
:0400DC00FFFFFFFF24
:1000E00001F0FF01102A2BDB10F0070F08D010F8E9
:1000F000013B013A8B422DD010F0070F42B3F6D1ED
:10010000F0B441EA012141EA014122F007047FF005
:1001100000070023F0E80256083C85EA010586EA5C
:10012000010685FA47F5A3FA87F586FA47F6A5FA98
:1001300087F68EB9EED1F0BC01F0FF0102F00702A4
:1001400032B110F8013B013A83EA010313B1F8D14F
:100150000020704701387047002D06BF3546033830
:10016000073815F0010F07D1013015F4807F02BF69
:10017000013015F4C03F0130F0BC0138704700BFBA
:1001800053B94AB9002908BF00281CBF4FF0FF31FE
:100190004FF0FF3000F00CB8ADF1080C6DE904CE63
:1001A00014F0EEFADDF804E0DDE9022304B0704754
:1001B000704700BF2DE9F00791E8F807B2E8021098
:1001C0005B1854EB0C04B2E802104D4156EB0C06E0
:1001D000B2E802104F4158EB0C08B2E8021059EB9C
:1001E00001095AEB0C0A80E8F80780410130BDE8AC
:1001F000F00770472DE9F00791E8F807B2E8021020
:100200005B1A74EB0C04B2E802108D4176EB0C061D
:10021000B2E802108F4178EB0C08B2E8021079EBDB
:1002200001097AEB0C0A80E8F80780414042BDE8FA
:10023000F00770472DE9F007524290E87800B1E8E6
:1002400080071740DB1918EA020854EB080419EA82
:10025000020955EB09051AEA020A56EB0A0678C0AC
:1002600090E87800B1E8800717407B4118EA02085F
:1002700054EB080419EA020955EB09051AEA020AC7
:1002800056EB0A0678C080410130BDE8F0077047A0
:100290002DE9F007524290E87800B1E88007174056
:1002A000DB1B18EA020874EB080419EA020975EB73
:1002B00009051AEA020A76EB0A0678C090E8780087
:1002C000B1E880071740BB4118EA020874EB080444
:1002D00019EA020975EB09051AEA020A76EB0A0621
:1002E00078C080414042BDE8F00770472DE9F00139
:1002F00052424FF0040890E8300091E8C000A31B80
:100300001340E41AF618EB1B1340ED1AFF1830C027
:10031000C0C1B8F10108EED1BDE8F001704700BFDF
:1003200000B592E8DC072DE9DC07B1E8805702B49C
:10033000A7FB02510A95A8FB020BE7FB6310E9FB40
:1003400062B00B91A8FB0351EAFB6201E7FB64B5C5
:10035000E7FB6605E8FB6615CDF830B0A9FB03B6F0
:10036000EAFB6316ECFB6356E8FB640BE9FB641BDA
:10037000EAFB645BECFB646B0D90ACFB0230059C0C
:10038000EEFB6250E9FB6460EAFB64B0E7FB6431BA
:10039000E8FB6451069CE8FB6461E9FB64B1EAFB9D
:1003A00064010E93A7FB0432079CE7FB6462E8FB41
:1003B00064B2E9FB6402EAFB6412049CE9FB645347
:1003C000EAFB6463089CE7FB64B3E8FB6403E9FBB6
:1003D0006413EAFB64230F955DF8049B99E800061B
:1003E000DDF80080A9FB0854EAFB68B4DDF8108052
:1003F000ECFB6804EEFB6814E9FB6824EAFB683454
:10040000DDF80480EEFB6865E9FB68B5EAFB68058A
:10041000DDF81480ECFB6815EEFB6825E9FB683518
:10042000EAFB68450F96DDF80880AEFB0876E9FB2D
:100430006806EAFB6816DDF81880ECFB6826EEFB20
:100440006836E9FB6846EAFB6856DDF80C80ECFB91
:1004500068B7EEFB6807E9FB6817EAFB6827DDF879
:100460001C80ECFB6837EEFB6847E9FB6857EAFB4A
:10047000686708B000BD00BF2DE9F14F87B0FFF7F6
:100480004FFFDDF81C8008F1200888E8FF00FFBC62
:1004900087E87F08BDE8F08F00B591E89857A3FB87
:1004A00003520195A3FB0401E3FB6420E3FB671007
:1004B0000292A3FB0752E3FB6802E4FB6415E3FB33
:1004C0006805E3FB69250391A4FB07B6E3FB6926F6
:1004D000E3FB6A56E4FB670BE4FB682BE3FB6A5B18
:1004E000E3FB6C6B0490A4FB0810E4FB6950E3FB96
:1004F0006C60E3FB6EB0E7FB6721E4FB6951E4FB52
:100500006A61E3FB6EB1E4FB6E010592A7FB083262
:10051000E4FB6A62E4FB6CB2E4FB6E02E7FB6E1282
:10052000E7FB6853E7FB6963E4FB6CB3E7FB6C0331
:10053000E7FB6E13E8FB6E230695A7FB0954E7FB68
:100540006AB4E7FB6C04E8FB6C14E8FB6E24E9FB7F
:100550006E34E8FB6865E7FB6AB5E8FB6A05E8FB13
:100560006C15E9FB6C25E9FB6E35EAFB6E450796D9
:10057000A8FB0976E8FB6A06E9FB6A16E9FB6C262C
:10058000EAFB6C36EAFB6E46ECFB6E56E8FB69B79D
:10059000E9FB6907E9FB6A17EAFB6A27EAFB6C37A4
:1005A000ECFB6C47ECFB6E57EEFB6E6700BD00BFCB
:1005B0002DE9F14F87B0FFF76FFFDDF81C8008F1E0
:1005C000200888E8FF00FFBC87E87F08BDE8F08FBF
:1005D00030B44FF0000310F8014B11F8015B013A01
:1005E00084EA050443EA0403F5D1A3F101034FEAC9
:1005F000D37030BC704700BF4FF0000310F8012BE0
:10060000013943EA0203F9D1A3F101034FEAD370A0
:10061000704700BF30B411F8014B12F8015B6C4019
:1006200000F8014B013BF6D130BC70472DE9F007D3
:1006300091E8F807B2E802105B1854EB0C04B2E83A
:1006400002104D4156EB0C06B2E802104F4158EB38
:100650000C08B2E8021059EB01095AEB0C0A894167
:10066000B3F1FF3374F1FF3475F1FF3576F1000615
:1006700077F1000778F1000879F101097AF1FF3A82
:1006800051F100015B184C414D4156F1000657F104
:10069000000758F1000859EBD1795AEB010A80E8BC
:1006A000F807BDE8F00770472DE9F00791E8F80773
:1006B000B2E802105B1A74EB0C04B2E802108D4130
:1006C00076EB0C06B2E802108F4178EB0C08B2E82A
:1006D000021079EB01097AEB0C0A89415B184C4155
:1006E0004D4156F1000657F1000758F1000859EB4B
:1006F000D1795AEB010A80E8F807BDE8F0077047A6
:1007000018EB040859EB05095AEB060A5BEB070BDB
:100710005FF0000C4CF1000C18EB050859EB0609D2
:100720005AEB070A5BEB070B50EB0C005FF0000C79
:1007300051EB0C0152EB0C0263414CF1000CB8EB95
:10074000070879F100097AF1000A7BEB040BA84154
:10075000B141A241B3416CF1000CBBEB050BB041C0
:10076000B941AA41BB416CF1000C4CF001068CF080
:10077000020718EB060859EB6C095AEB6C0A7BEB85
:100780006C0B70EB6C0471EB6C0572EB670653EB52
:100790006C076CEB6C0C18EB0C0059EB0C015AEB72
:1007A0000C025BF1000354F1000455F1000556EB17
:1007B000DC7657EB0C0770472DE9F14F87B0FFF758
:1007C000AFFDDDF81080DDF81490DDF818A0FFF71C
:1007D00097FFBDE8000FFFF793FF03B05DF8048BB0
:1007E00088E8FF00BDE8F08F2DE9F14F87B0FFF7F3
:1007F00053FEDDF81080DDF81490DDF818A0FFF747
:100800007FFFBDE8000FFFF77BFF03B05DF8048BAF
:1008100088E8FF00BDE8F08F2DE9F047A74D86B0CE
:10082000EA7B0023CDE902338DF80E206A7D8DF836
:100830001020AA7D2B788DF81120EA7D8DF80930E3
:100840008DF812206B782A7E8DF80A308DF81320EF
:10085000AB786A7E8DF80B308DF81420EB7895F824
:1008600026208DF80C30C41D2B798DF80D300746ED
:100870000E4624F007040AB18DF80F30002E08BF91
:10088000204602A918BF002000F072FD95F80080F4
:100890006B784FF0000A984404445FFA88F8D14618
:1008A0005FFA8AF34345C0F0F7800334002E24F04A
:1008B000030449460CBF2046002000F053FFA978EE
:1008C000044479B1EB78EA7BE01C20F00304002EAD
:1008D0001A4408BF20466B89D2B218BF002000F02E
:1008E000B5FF044495F827308BB1697A79B195F852
:1008F0002830E01C002B20F0030414BFFF22252227
:10090000002E0CBF2046002001F078F80444297B1B
:1009100081B1AB7823B995F827305BB16B7A4BB1D5
:10092000E01D20F00704002E0CBF204600200BF035
:1009300005FC0444624B1B6863B1297951B1E01C8A
:1009400020F00304002E08BF20466A7B18BF002059
:10095000984704445B4B1B6853B1A97B41B1E01C31
:1009600020F00304002E0CBF2046002098470444CA
:10097000554BD3F80080B8F1000F0FD0E97B69B177
:10098000E01CAB7C009320F00304002E08BF20463F
:100990006B7C2A7C18BF0020C047044495F82630A1
:1009A0006BB1297959B1E01C20F00304002E08BF77
:1009B00020462A7D18BF002001F0DAF80444E87FC1
:1009C00068B16B7EA97D033424F0070444F004046D
:1009D000194422463346C9B201F00AF9044495F895
:1009E0002010002962D0E01D20F00708002E4FF0F3
:1009F000FB020CBF4046002014F08BFF08EB000404
:100A00001EB9FB2140460FF0BBFEA97E00294FD046
:100A1000AB7F002B4CD0E01D20F00708002E4FF4D8
:100A20008C720CBF4046002014F073FF08EB0004EA
:100A30002B7EA97DA87F033424F0070444F004042E
:100A4000194422463346C9B201F0C4F804442EB911
:100A5000A97E4FF48A7240460FF0B4FEEB6A13B1E0
:100A600006B9EC62283495F8241089B1E01D20F015
:100A70000705002E42F210720CBF2846002014F029
:100A800048FF2C1826B942F2107128460FF0A0FE3C
:100A9000E01B06B0BDE8F0872B7AEA79A97968797E
:100AA00014F009FF0AF1010A8144F9E68846A7E734
:100AB000002ED3D1324631463046CDE7280B0020F8
:100AC000540000205C000020580000208FB572B652
:100AD000194B1D6BE5B9BFF34F8F1849184BCA6806
:100AE00002F4E0621343CB60BFF34F8F00BFFDE71A
:100AF000B4FBF6F4DAB20133002CF9D102F11003A1
:100B00006B440A2603F80C4C32B901A8A847E2E767
:100B1000044600230A26EDE7531E04AC54FA83F47E
:100B2000DAB2C3B2B3FBF6F706FB1733303304F87F
:100B30000C3CB0FBF6F0E7E7280B002000ED00E0EE
:100B40000400FA051FB5164C237A8DF80930E379B5
:100B50008DF80830A379ADF80C3002A86379ADF8B0
:100B60000A3009F027FF18B1B5210320FFF7AEFFC7
:100B7000012301A88DF8043015F027FF08B1B92131
:100B8000F3E7A07C09F04EFF08B1BC21EDE7607CE3
:100B900009F042FF08B1BD21E7E704B010BD00BF76
:100BA000280B002038B50546002842D013F07AFA09
:100BB00010B94FF0FF3038BD10F094F8B0F5FA7F5F
:100BC000F7D81E4C1E482563002500F089FA26221E
:100BD0002946204684F8345084F8355084F827504C
:100BE00084F82850E56284F8265013F099FC1B2203
:100BF000627140F21B32E28040F2023240F2011395
:100C000022811F222380628101234FF40272A3708C
:100C1000A281237544F60112FB232282A3836384FD
:100C2000EFF3108472B601F003F82CB962B62046D7
:100C3000C1E76FF01500BEE72846BCE7280B00208F
:100C4000450B000010B5002840F0A680554C94F8E4
:100C50003430002B40F09D80A1B1002A6DD00139C5
:100C6000142900F29980DFE801F00B191C2C545C68
:100C700075325F6270383E4B507A7D8B8E91820068
:100C80001378237001210020FFF7C6FDB0F5803FE7
:100C900080F28580012384F8353010BD13786370AD
:100CA000F0E79378002B48D0D378002B45D0137809
:100CB0001A2B42D953781A2B3FD91368C4F8053040
:100CC000E0E71378E278934237D3A370DAE713783A
:100CD000A278934231D8E370D4E71378A278934294
:100CE0002BD8E373CEE713783BB35378013BDBB2E9
:100CF000F82B22D8138823822B4B92789A70C1E765
:100D00001078E0740CF094FEBCE71378ABB1237557
:100D1000B8E7137894F827200AB1012B0DD9637234
:100D2000B0E713886381ADE713782371AAE794F8DD
:100D30002610137821B9012B04D86FF01500ACE709
:100D4000002BFAD0137863739CE71378082BF4D840
:100D5000A37397E71388FF2BEFD8237392E71378D9
:100D600063758FE713780E2BE7D8A3758AE71368AE
:100D70000E49C4F81A3053684B6013890B8181E720
:100D80001378E3757EE7137863767BE71378237631
:100D900078E74FF0FF3080E76FF02C007DE76FF0D1
:100DA0000B007AE7280B0020380B0020420B0020B4
:100DB00070B50D460646F0B1E9B111F007041AD13D
:100DC00000F0C2F8D0B1304613F018FA0D4E2146AB
:100DD00086F836002846FFF71FFD18F0CAF896F887
:100DE0003600F16A09F08AFEFFF7ACFE012386F8AF
:100DF0003430204670BD6FF01500FBE74FF0FF3038
:100E0000F8E700BF280B002010B5084C94F83430E8
:100E10002BB109F08FFE94F8360013F00BFA14F0A2
:100E20000FFE002084F8340010BD00BF280B002006
:100E300050B1074B03F1140253F8041B40F8041B94
:100E40009342F9D1002070476FF01500704700BF42
:100E5000EBC9020038B5094D95F835305BB995F806
:100E6000344044B909F016FE012385F8273085F88F
:100E70002830204638BD4FF0FF30FBE7280B00201C
:100E8000074B93F8352010B532B993F834401CB9AC
:100E900009F0CEFD204610BD4FF0FF30FBE700BF4C
:100EA000280B0020074B93F8352010B532B993F882
:100EB00034401CB915F0BAFD204610BD4FF0FF308C
:100EC000FBE700BF280B0020074B93F8352010B537
:100ED00032B993F834401CB915F0ABFD204610BD73
:100EE0004FF0FF30FBE700BF280B00200A4B93F8C0
:100EF000352010B562B993F834404CB909F0E6FDDD
:100F0000064B074A1A60074B074A1A60204610BD75
:100F10004FF0FF30FBE700BF280B002054000020FB
:100F200009E400005C000020E11A000007C8024B41
:100F300083E8070000207047600B0020014B9B688E
:100F4000184700BF600B0020024B9868003818BF9C
:100F500001207047600B002073B52E4D031D044621
:100F60002B6028460AF016FC0228064606D12949BD
:100F7000204613F094FD304602B070BD042842D1E3
:100F80002B78092B0AD0252B1ED02946204613F09A
:100F9000EBFDB0F5817F2DD3722112E005213E20BB
:100FA00013F050FD0028F0D1EB782A7901A943EA2B
:100FB00002236846ADF8003014F0E0F90028D0D0E4
:100FC00053210820FFF782FD1A213E2013F03AFD3D
:100FD0000028DAD16B68C3F30F23ADF804306946FB
:100FE000112301A88DF8063014F0F6F90028B8D0C6
:100FF0006521E6E70028B4D0A178207813F022FD1F
:101000000028B8D1ADE70828B5D10249204613F031
:1010100075FDB0E76C0B0020074B4FF0FF3141F638
:10102000FF72C3E9001205490022C1E900221F2115
:10103000C3E90212704700BF00000020700C0020BE
:101040003F280CD801380B4BC0F3421200F01F00B0
:1010500053F8223023FA00F000F001007047FF2817
:1010600006D04038C0F34212034B00F01F00EFE7F8
:101070000120704700000020700C00200146074B43
:10108000006849681A4603C240F48C221A6041F095
:10109000107242F4FF625A60704700BF00000020E7
:1010A0000246024B0068516803C37047700C002071
:1010B0000246024B0068516803C3704708000020D5
:1010C0000138064BC0F3421203EB820300F01F000D
:1010D0009B6823FA00F000F0010070470000002038
:1010E000014B1860704700BF780C002010B5FFF767
:1010F00093FF15F057F8034B1B68044603B198475C
:10110000204610BD780C00200B880288F0B5C3F390
:101110000E049EB204F11803C57CC35A05352A4457
:101120002B4497B213FA82F3013B4288B3FBF7F3E7
:1011300013FB07439BB29A42044A93BF22EA060379
:10114000324013439BB20B80F0BD00BF0080FFFF15
:1011500010B5114B00EB41041A786389B3FBF2F32D
:1011600003FB0223013A1A44B2F5706F027928BFDB
:1011700000231A448378B2FBF3F0194403FB1020D8
:10118000091AB1FBF3F003FB101313446FEA434356
:101190006FEA5343638110BD7C0C002010B5124BE5
:1011A000E0B15A78022A04D040F259111720FFF713
:1011B0008DFC03225A70026812F0070102D04FF42E
:1011C000AF71F3E75C685A60224402609A60BDE840
:1011D0001040302203F10C0013F0A2B901225A7022
:1011E000C3E9010010BD00BF7C0C00202DE9F041D7
:1011F000254E96F801E00EF0FD0CBCF1010F04D075
:1012000040F273111720FFF761FC91F80680B8F1E6
:10121000080F02D940F27511F4E7CF7997B345462C
:10122000022D726838BF02257B1D5C0002EB430370
:101230006A1E13446D422B408D884544013DC8F120
:1012400000022A404FF6FE75AA4202D94FF4C0713F
:10125000D8E7BEF1030F12D106EB80001C1BC56856
:1012600015B140F28511CDE7C460A770228084F8E3
:1012700003C0087A09682071080CE080218107FB0F
:1012800002337360BDE8F0817C0C00202DE9F0474B
:10129000364C6378012B65D0032B04D040F29511B6
:1012A0001720FFF713FCD4E901329A4202D04FF421
:1012B000CC71F5E72546002305F80C3B1E460B22B2
:1012C000994655F82200013A58B190F80480817887
:1012D000B8F1FF0F2FD180F804908E423CBFCEB200
:1012E0000123511CEDD103B126700B2640F6FF6996
:1012F00055F826709FBB013EFAD20423637000208C
:10130000BDE8F08755F82CE0BEF1000F06D09EF83E
:1013100004A0C24504BF9EF802E077440CF1FF3CF4
:10132000BCF1000FEEDA3944FF2907D903B126706A
:101330004FF49A71B4E794460027F1E70771CCE7C0
:1013400007EB41033846A3F80A90FFF701FF08F1C5
:101350000108BB785FFA88F18B42F1D8CBE74FF0F8
:101360000008F6E7022360686370C9E77C0C002080
:101370002DE9FF474A788B781344FF2B06460C462D
:1013800004D940F2AB111720FFF7A0FB0B78934272
:1013900002D940F2AF11F6E7DFF8D481009038B1FE
:1013A00098F80130022B02D00020FFF7E1FF6846D9
:1013B000FFF7F4FE00276F4A6378019208254FF487
:1013C0005A7201A93846ADF808208DF80B308DF817
:1013D0000A508DF80C70FFF709FF674AA378019255
:1013E00001A94FF47A720120ADF808208DF80B3076
:1013F0008DF80A508DF80C70FFF7F8FE5F4AE3781D
:1014000001924FF0FF094FF4AC7201A90220ADF830
:1014100008208DF80B308DF80A508DF80C90FFF7EE
:10142000E5FE574A2379019201A990220320ADF8E5
:1014300008208DF80B308DF80A508DF80C90FFF7CE
:10144000D5FE63794F4A01928DF80B30A822012313
:1014500001A90420ADF808208DF80C308DF80A5051
:10146000FFF7C4FEA379484A0192CDE902778DF8CF
:101470000A508DF80B308DF80C901BB10CF0CCFAA3
:10148000ADF8080001A90520FFF7B0FE3F4AE37957
:101490000192082580224FF0FF0901A90620ADF82E
:1014A00008208DF80B308DF80C908DF80A50FFF75E
:1014B0009DFE237A364A01928DF80B307822022362
:1014C00001A90720ADF808208DF80C308DF80A50DE
:1014D000FFF78CFE2F4A637A019200274FF40A72BD
:1014E00001A92846ADF808208DF80B308DF80A5078
:1014F0008DF80C70FFF77AFE274AA37A019201A9B2
:101500004FF48C720920ADF80820DFF890A08DF818
:101510000B308DF80C908DF80A504FF48879FFF756
:1015200065FEE37A8DF80B3001A90A20CDF804A0FE
:10153000ADF808908DF80A508DF80C70FFF756FE44
:10154000237B8DF80B3001A90B20CDF804A0ADF85A
:1015500008908DF80A508DF80C70FFF747FEFFF7E2
:1015600095FED8F80400801B04B0BDE8F08700BFEA
:101570007C0C002059850100D78201006D2B0000F2
:10158000FF85010061DC0000B38B01002F8F01009B
:10159000E19500004995000035960000DD960000B9
:1015A000F8B54FF6FF730380184B03EB8103054634
:1015B000D868B8B186780379B3FBF6F206FB12332C
:1015C000DBB219460A1D00EB4202B2F902705488E0
:1015D000002F09DB0131B1FBF6F206FB1211C9B293
:1015E0008B42EFD10020F8BDFF29FBD0C4F30E03DE
:1015F000C4782B8024B940F2C7211720FFF766FA80
:101600005380BDE8F84014F035B900BF7C0C0020D1
:101610001E4B03EB810370B5DC6805464CB3B0F597
:10162000706F04D340F2D5211720FFF74FFA01461F
:10163000204614F001F9FF28014604D02046BDE8F9
:10164000704014F017B9A078B5FBF0F300FB13530A
:10165000DBB219460A1D04EB4206B6F90260002E01
:1016600009DB0131B1FBF0F200FB1211C9B28B4270
:10167000F0D1002070BDFF29FBD08B4204EB420269
:101680001CBF0023E3705580D8E700BF7C0C00200E
:10169000094B03EB810310B5DC680146204614F0CA
:1016A000CBF8FF28014604D02046BDE8104014F0D6
:1016B000E1B8002010BD00BF7C0C00200F4B03EBF5
:1016C000810370B5DC6801460646204614F0B4F884
:1016D000FF28054610D00146204614F0CBF8E288DA
:1016E0002389014643EA024330469847204629466B
:1016F000FFF72EFD002070BD0320FCE77C0C0020CE
:1017000038B50E4B827903EB82030446D86808B9DA
:10171000022038BD8278E1799142F9D24B1CE37105
:1017200000EB41035D89B3F90A30002BF3DBA580A0
:1017300014F0A0F820600020EBE700BF7C0C002034
:1017400008B5074B03EB81030146D86814F074F821
:10175000FF2804D14FF44E711720FFF7B7F908BDE9
:101760007C0C002070B5044610F003000E4603D038
:1017700049211820FFF7AAF914F002F8054624B110
:1017800003483146046013F0FBFF284670BD00BFDC
:10179000B80C00202DE9F04F1E4C85B0924622680F
:1017A000BDF83CB098468146BDF838300D461AB9B0
:1017B0005B211820FFF78AF91A460A215046039345
:1017C00013F071FE5A4606460921404613F06BFE9F
:1017D00031180746206813F0FEFF039BC9F800008C
:1017E00018B9286005B0BDE8F08F84192C60D9F8CD
:1017F00000000093524631460A2313F0F3FD286897
:10180000CDF838B009234246394605B0BDE8F04F5F
:1018100013F0E8BDB80C002070B50E46044613F076
:101820004BFE0546304613F047FE044B2A1821466E
:101830001868BDE8704013F0F8BF00BFB80C002076
:10184000014B186813F0BABFB80C0020F8B511446A
:101850001D4EC9B210F00305317003D04E2109208E
:10186000FFF734F91F2B19D89B009BB2033323F0E9
:1018700003039BB208B17060338101EB8104766889
:10188000E2004FF0010C00EBC404EFB2B94212D8F1
:10189000D01D03FB010020F00700F8BDFF2B4FEA2D
:1018A000430204D9FF339342DFDB93B2DEE77C2AA5
:1018B000FBDC7C23DAE710B186F800C074600135E8
:1018C00028361C44E1E700BFBC0C002038B5144AA0
:1018D000147853680021C8B2844203D8A921092092
:1018E000FFF7F4F81846013105782833002DF2D0BF
:1018F0000124128944700021446881708161C161B2
:10190000920800F12001051D21F8022B994245F8AB
:10191000044B1444F8D100234361037038BD00BF69
:10192000BC0C00202DE9F8434B7880460C4602F0B1
:10193000040602F0FB07D3B1DFB12F4BD4F80490BB
:101940001D89BFBB01236370AD08A761E76104F186
:1019500020034A46211D04F1280023F8025B984227
:1019600041F8042B2A44F8D10023636101E0002FE1
:10197000E3D0002E4FF0FF0318BF0226A370A31977
:101980001B7D032B03D1022F1CBF0136F6B2A31916
:1019900001221A7506F10C0204EB8606002324F8D6
:1019A00012307268A370C8F80020A8F804304046CE
:1019B000BDE8F883002114226170A01812F0B0FD78
:1019C000B5F5FF7F0FD26B08ED1AADB209EB05023A
:1019D000C4F804902584A2606384C4F80C90A584A4
:1019E0002261E384C5E7B5F5EE6F4FF0FF03EBD955
:1019F00040F27265EAE700BFBC0C00202DE9F74316
:101A00001FFA82F81FFA81F904460F4616462E2166
:101A10004A46404613F047FD05465CB12E23014679
:101A2000CDF800904246204613F0DCFC034B1C60CE
:101A30001F715E71284603B0BDE8F083C80C00201A
:101A4000024B5A7919791868FFF7D8BFC80C0020E3
:101A5000014B1868704700BFC80C0020014B587933
:101A6000704700BFC80C0020F7B50B68CDF80130F7
:101A7000D2008B88ADF805304000104B02F07802A0
:101A800000F00600024342F001021E785F688DF804
:101A900000200025EBB29E4201D800240AE0C5EBED
:101AA000C5043C4407226946204612F05BFC013520
:101AB0000028EFD1204603B0F0BD00BFD00C0020BD
:101AC000014B1878704700BFD00C0020034B1A78E8
:101AD0005868C2EBC202002112F022BDD00C0020D7
:101AE00010B50C4650B1830703D020214120FEF7EA
:101AF000EDFF044B58601970FFF7E8FFC4EBC4001A
:101B000010BD00BFD00C0020F8B504460D461646A7
:101B1000FFF7AAFF034638BB144A92F800C0576883
:101B2000DAB2944501D807201DE0C3EBC302B9180F
:101B3000B85C024610F0010003F10103F0D163002C
:101B400003F00603F60043F0010306F0780622F0E6
:101B50007F02334313430A4602F8013B2B68C1F866
:101B60000130AB889380F8BD1220FCE7D00C002038
:101B70002DE9F74305460C46F7200521904613F062
:101B800092FC064685B115F0030703D08F2119207A
:101B9000FEF79CFFDFF83890C9F81050A9F8140040
:101BA000A5B2BBB29D4204D806FB04F003B0BDE869
:101BB000F083B9F814C0D9F81000CDF8008007FB05
:101BC0000C000523F722314613F00CFC0137E8E73F
:101BD000D80C002007B5CDE900230B460349024687
:101BE000081D13F007FF03B05DF804FBF00C0020A4
:101BF00013B5064CCDE900230B46024604F108015B
:101C000004F10C0013F0F6FE02B010BDF00C002041
:101C1000024B0146D3E9002013F007BEF00C002070
:101C2000024B0146D3E9022013F0FFBDF00C002067
:101C3000134B012200214FF0FF309A60C3F80012CD
:101C4000C3F80803C3F80015C3F804259A60C3F865
:101C50000803C3F80015C3F804250A490A4A03F526
:101C600080334FF40040C3F80825C1F88000BFF36B
:101C70004F8FBFF36F8FC1F88001C3F808257047FD
:101C800000F0004000E100E00000F63F8C46382301
:101C900000B50CF8033B054B8E4607CBCEF803008E
:101CA000CCF80410CCF808205DF804FB0C0D0020E3
:101CB00070B5234DE96AAC6A0B7803F00303032B7C
:101CC00004F1A8041AD16B8E2A8E0120034342F43A
:101CD00000626B8620746B6B2A869847E96A237EC4
:101CE000013B18BF012323764B7833B1D4E922326C
:101CF000013342F10002C4E9223270BD002BEED064
:101D00004B78002BEBD02A8E42F400622A86AA6B15
:101D1000002AF2D0FB2B08D895F83C3063B16B6BEE
:101D20000021BDE870402020184795F83D3043F071
:101D3000100385F83D3070BD01230370CFE700BF6D
:101D4000000D002010B5114C0DF094FB0CF04EFE70
:101D5000636B208E00219847237E4BB9236C94F847
:101D60003D1094F83E009847002384F8443010BD9D
:101D700094E8070004F10C0383E8070004490222F9
:101D800004F1190015F0D5FDE8E700BF000D0020B3
:101D90008D1C0000034B93F8443003B97047FFF7E4
:101DA000D1BF00BF000D0020012923D838B51C4D3C
:101DB000AB6C04469847D8B195F83D30C3B995F857
:101DC000240010B11CB1002038BD012CFCD195F8C5
:101DD0004C30DC06C3F300110ED50023AA6B92B180
:101DE000C0B16A8E920715D5AB6DDB78022BEAD0B5
:101DF000012038BD012070472B6D1B78C3F3001301
:101E0000C3F10103EAE7B5F85420002AE8D000291D
:101E1000EED0E5E7002BEBD16A8E002AD3D0E7E7BE
:101E2000000D002008B5094B93F84420022A07D181
:101E3000DA7A42F00102DA72BDE80840FFF782BFA9
:101E400040F23D212720FEF741FE00BF000D00209B
:101E5000F8B5254CA66A236DE36296F8CB300546AB
:101E600006F1A80794F85C000BB10430C0B296F8F4
:101E700071100DB9FF282ED00DF060F897F82330BF
:101E80001BB3206E0DF0EAFE94F82430216EE06A58
:101E9000003B18BF012384F88030D7E92223C4E92E
:101EA0001E230CF04FFD3DB996F8710010F00C00A8
:101EB00018BF28200DF03CFF96F8701000200DF0A0
:101EC00081FF022384F84430F8BDE06A0DF0C6FEBD
:101ED0000CF08CFDE7E796F870209142D0D00DF021
:101EE0002DF897F82330CBE7000D002070B57F4C1C
:101EF000A56A82B095F8CB20002305F1A8068DF8DD
:101F0000053094F85C300AB10433DBB210B9FF2B12
:101F100000F0B28095F87010FF200DF00FF8B37D3F
:101F2000032B00F2DE80DFE803F0021D807094F8DE
:101F3000C230ADF806306E48A5F8603008F0ECFE0F
:101F4000002840F0A180D4F8C4000DF105020DF185
:101F5000060113F0D3FAA06520B196F86130002B8A
:101F600000F0A9806348A065F37DDB0003F0080260
:101F7000037803F0F3031343327E920002F004026D
:101F8000134303F0EF0203F00303032B027002D1AB
:101F9000C378022B12D0D4F8C40013F032FB48B936
:101FA000A06D027802F00303032B07D008F0DAFEDD
:101FB000002879D1A06D027842F01002027096F8E4
:101FC000223013B14378002B43D10DF047FE0CF0C3
:101FD0000DFDA66D09F080FD20B1337803F00303F9
:101FE000032B64D095F8711001200DF0EBFEA36D6A
:101FF000414A18889978A4F84C00012384F8C83025
:10200000917084F8443002B070BD394808F084FE05
:10201000002861D0A06DC3781B2BA5D1012105F14B
:1020200010000CF0C1FFA06D9EE7B5F86030D4F849
:10203000C400ADF806300DF105020DF1060113F0F4
:102040005DFAA06500288FD140F2D6212720FEF747
:102050003DFD206E0DF002FE94F82410206ED6E9AE
:102060002023B1FA81F67609A16D84F88060C4E975
:102070001E230CF067FCACE795F8713095F87010F2
:102080008B427FF449AF4AE7638EA16D626B43F0E8
:102090008003802063869047A06D01217174C3780E
:1020A0001B2B7FF461AFBAE7A06D027886E70120B1
:1020B0000EF0B8FD96E79DF805302BB1BDF806107F
:1020C00015F0F2FBA06D4FE703808370A06D012136
:1020D00015F048FBA06DF1E740F2DF212720FEF765
:1020E000F5FC4FF43B712720FEF7F0FC000D0020BB
:1020F000580D0020900D00204C0D00202DE9F041DE
:10210000434C94F84420A56A012A82B006460F4643
:1021100005F1A8055FFA82F874D12B7C6BB1638E50
:10212000002143F0040363862974636B04209847FD
:1021300094F824300BB185F81280A16D0A7802F072
:102140000302032A36D04B78EBB10223AB7595F826
:102150002330F3B1A36A93F87110D5E92223C4E9BF
:102160001E2394F8243094F85C20003B18BF012310
:10217000013984F8803007293FD8DFE801F03B13AC
:102180003E113E3E3E380123AB7595F82330002BBF
:10219000E0D106B907BB02B0BDE8F041FFF7D2BD00
:1021A0004FF00308002300931A49434601200CF026
:1021B00051FBEEE7AB7D63B9638E43F002036386A8
:1021C0000220636B9847A16D0B7803F00303032B88
:1021D000B9D10323AB75BAE731463046FFF7E4FDCA
:1021E0000028D8D102B0BDE8F041FFF731BE4FF072
:1021F0000208D7E74FF00008D4E740F2B9310620D3
:10220000FEF764FC40F25C412720FEF75FFC00BF54
:10221000000D0020680D002070B50C4B0C4C0D4AD1
:102220001A6094F8443063B906460D4603F0FF0285
:10223000012104F19000227615F094FA26652566B6
:1022400070BDDF212720FEF741FC00BF60000020A9
:10225000000D0020E42A0000044A92F8443003F004
:10226000FF000BB9107670470C207047000D00205E
:10227000024B012283F83C20704700BF000D002074
:102280002DE9F043BA4C85B002AD85E8030094F81F
:1022900044100C98002940F0D481002A00F0D1812C
:1022A000002B00F0CE81002800F0CB8101F0FF066A
:1022B000206495E80300A36404F1240383E8030089
:1022C000A56A626384F83C6084F83D6084F8C96064
:1022D00084F83E6084F8C860668626860CF0C4FEEA
:1022E0000CF084FB95F974000CF0DEFF05F1A807F3
:1022F000A86A0DF097FC286A0CF0DCFF97F8330011
:102300000CF0E2FF94F82430002B69D0042012F086
:10231000BDF9EA6941F64B539A4294BF4D2096208D
:102320000CF0AAFDA36A93F8D832002B40F01C8170
:1023300095F8711001200DF0AFF9002863D08D4B96
:1023400018680DF075FC6B69C4F8C430AB69C4F84B
:10235000CC3095F87F301BB9A96F002940F0C380BD
:10236000D7F89000D7F89410D7F89820D7F89C3079
:10237000DFF804C2ACE80F00D7F8A030C4F8813011
:10238000D7F8A430CCF80D30A36A94F8241093F851
:10239000C520A2F12600002938D1012803D993F8DD
:1023A000C600262838D193F81A2393F87080002AA3
:1023B00040D0B8F1080F3DD0B8F1040F00F02681ED
:1023C000082A00F02381042A00F02081B8F1010FCF
:1023D00030D0012A14BF4FF002084FF0010829E065
:1023E000032012F053F9EA6941F64B539A4294BF25
:1023F0004D2096200CF040FD95F8701000200DF057
:102400004BF900289BD105B0BDE8F08301287BD9AA
:1024100093F8C600262877D0213A012A40F2CC80D2
:10242000242800F0E78093F87080B8F1040F08BF0B
:102430004FF0080805F138094146484615F037FBCA
:10244000414614F046FEB5F8443095F87110024646
:10245000934228BF1346484684F8C23015F0EDFA7F
:1024600095F8711097F82390B5F84C80082908BFAB
:10247000042114F02EFEB9F1000F01D1043080B216
:10248000404528BF40465FFA80F884F8D08009F0C4
:1024900023FB20B1B8F12B0F38BF4FF02B0894F875
:1024A000241084F85C80002957D197F82230002B43
:1024B0003AD0012384F88030D7E92023C4E91E23D1
:1024C00095F87030E86941F64B52013B904294BF59
:1024D00004200020072B00F29C80DFE803F01E9F01
:1024E0009A1D9A9A9AA1B7F84E20BB8A93427FF41C
:1024F00037AFB5F87C201344A7F84E3095F87E002E
:1025000001220EF073FB2BE793F8B62393F870804B
:10251000002A7FF44EAF8DE7032100220B46009284
:102520001549FB220CF096F90120FFF7DFFC134B55
:10253000D3F8503523F00803032B00F087800023E5
:10254000C4E90033A3602A88B98A97F833306180E0
:102550002280237105B0BDE8F08397F823307BB962
:102560000120FFF775FCE2E70CF06CFDE0E600BF30
:10257000000D002060000020680D002000100040C9
:10258000D7E9220195F871300122013BC4E91E010F
:1025900084F88020072B3CD8DFE803F005443B0497
:1025A0003B3B3B4603260021009133462A494246E5
:1025B00001200CF04FF9D3E724281BD000293FF469
:1025C00032AF93F86E2193F8708050071ED412F04A
:1025D00001032BD193077FF52DAFB8F1080F3FF41E
:1025E00029AFB8F1040F11D0B8F1010F18BF4FF0A7
:1025F00002081FE700293FF416AF93F8691093F81B
:102600006E2193F870800A405107E0D54FF008081A
:1026100010E740F2B9310620FEF758FA01217CE7B5
:1026200002217AE70126BEE70226BCE7B8F1080FCF
:102630003FF400AFB8F1040F14BF98464FF00808FC
:10264000F8E64FF4A8712720FEF740FA4FF4FD7129
:102650002720FEF73BFA00BF680D002010B5184C8C
:1026600094F84430EBB194F824308BB194F84430B2
:10267000022B20D1A36AD3F8F0020DF027FBA16A48
:1026800091F87F3003F0FF020BB98B6F63B910BD77
:1026900094F84430012BF2D040F20F212720FEF7AE
:1026A00015FAFFF74FFBEAE791F87E00BDE810400E
:1026B00011460EF09BBA40F213212720FEF706FACE
:1026C000000D0020FFF73EBB014B1876704700BF9E
:1026D000000D00202DE9F0411E4FBC6A820782B038
:1026E00005460E4604F1A80411D4EB070CD5D4E935
:1026F0002232217E013342F100020129C4E9223253
:102700000CBF00230123237602B0BDE8F081BB6B30
:10271000DBB1B7F85420F96A1846033291F801800A
:1027200011F086FE0DF1020201A9F862D7F8CC0083
:1027300013F01CF8019813F003F8012230604146B1
:10274000D7F8CC0012F0A8FFCFE740F24D41272088
:10275000FEF7BCF9000D00202DE9F047B24C86B021
:102760000023CDE904338DF80F3094F84430A56A86
:10277000022B06460F4605F1A8055FFA83F840F0E4
:10278000A281238E13F0400106D1636B402098474D
:10279000238E43F040032386002E5AD095F8233031
:1027A000002B40F01881D4F82CA09AF8011089B2BF
:1027B000A4F85410002940F025810023A3639AF85F
:1027C0000000238EE97DC0F3800243F480739142C0
:1027D000238600F0CC80A26A94F8241002F1A809A4
:1027E00099F81620EAB1022A00F05381002389F8F3
:1027F000163021B199F81220002A40F03F8199F853
:102800001130002B40F0168199F81730D4F82CA025
:10281000012B0CBF0023012389F817309AF8000020
:10282000238E43F4806222862A7EC0F3C0039A423C
:102830004FF0000900F0A28009F04EF9C0B19AF8FB
:10284000003003F00303032B12D101200EF0EAF94C
:102850000EE095F82320002A40F0B98043F400737D
:10286000238694F8C930013384F8C9304FF0000949
:1028700095F822305BB394F82430A26AB3FA83F35C
:10288000D06992F870105B0984F8803041F64B53A0
:10289000984294BF04200020D5E920230139C4E9DF
:1028A0001E23072900F2E280DFE811F08E00080005
:1028B000E0008B00E000E000E0000A004FF00108BB
:1028C0000022009259494346FB220BF0C3FF47B94F
:1028D00094F8C9100120FFF767FA0746002800F0B6
:1028E00099800DF0DDFA01279DF80F307BBBB9F11F
:1028F000000F08D094F82430002B59D1B4F80930D7
:102900000133A4F809303EB3B4F805300022013396
:10291000A4F8053084F8C920454809F04DFB049817
:1029200040B112F00DFFA16A00234372082201306A
:1029300014F0EDFF059B33B1A16A00221A720598CD
:10294000102214F0E4FF6FB906B0BDE8F08705A9C6
:102950000220FFF7BFFECAE7B4F807300133A4F83E
:102960000730D9E7FFF7EEF906B0BDE8F0872A7E19
:10297000C0F3C0039A42B1467FF45EAF09F0ACF8F1
:1029800000284AD0D4F82CA09AF8003003F00303B2
:10299000013B012B41D89AF8012094F8D0309A429B
:1029A0003BD994F83D3043F0100384F83D3043E7C1
:1029B000B4F80530B4F80710AA8A0B431343A2D029
:1029C0009CE74FF003087BE74FF0000878E70CF036
:1029D00077F8238E42E70CF039F80CF01BF8D4F8A6
:1029E0002CA09AF8011000287FF4E1AE002942D013
:1029F0009AF800302A7EC3F3C0039A425DD089B2B0
:102A0000A4F85410D4F8CC0012F01CFED4F82CA07A
:102A1000A063D4E6FFF76AFA66E70DF10F00FFF74F
:102A200047F9D4F82CA007E7000D0020680D00201E
:102A3000240D00204FF0000A89F811A008F07CF95D
:102A400000284AD0638E43F0080363865146636BC7
:102A500008209847D9F880300133C9F88030D9F878
:102A6000843043F10003C9F88430CDE640F2B93137
:102A70000620FEF72BF8A4F854109EE689F81230D1
:102A80001946638E43F0100363861020636B9847EA
:102A9000B5E6D4F8C40004A912F053FDC0B1D9F8CA
:102AA000803094F824100133C9F88030D9F884308C
:102AB00043F10003C9F8843098E6012384F83E30DE
:102AC000FFF740F940E740F2CF412720FDF7FEFF36
:102AD00040F2CB312720FDF7F9FF40F2E231272009
:102AE000FDF7F4FF251E000059270000FD2000001F
:102AF000951D000030B54FF4AC7285B004460D460C
:102B0000002111F00DFD42F21073FF211322E38426
:102B100021706280FEF7DAFE00220146E06468461A
:102B2000FEF700FFE06C0022012112F035FFE16C9E
:102B300004226846FEF7F6FE0022E06C114612F011
:102B40002BFF04F13000257500F024F802A808F0EE
:102B5000B5FC30B102A904F1360014F0A3FB05B0B6
:102B600030BD40F23A312D20FDF7B0FFFF23C86C95
:102B70000B7012F00EBF00BF407D003818BF01205F
:102B8000704700BF408800F0010070474088C0F3E4
:102B900040007047002240F20113C0F80220038079
:102BA000704700BF08B540F24F310620FDF78EFF99
:102BB0002DE9F04F04468BB00020029394F8713059
:102BC000069017460E46059313F0F0FF94F8D922AD
:102BD0000B2A00F27983AD4B33F8125094F8C620DB
:102BE0000392284487F0010285B204922FB3B4F80F
:102BF00068A3B4F8BC90A6EB0A0A0FFA8AFAA6EB0F
:102C00000909BAF1000F0FFA89F904F55078C0F2FA
:102C1000C9819F4ADDF808B0127802F0FF07002A48
:102C200040F0D18194F82433032B00F25E83DFE877
:102C300013F03301F9009800300094F82423032A9C
:102C4000D5D1039A0E2AD2D1B4F8B423B242CED150
:102C5000B4F86A23B4F8F6120A44C4F82023D4F86E
:102C60002C23C4F81823E269C4F81C23204609F079
:102C70000BFBD4F8B823E262B4F8B6232286D4F86A
:102C8000BC23E261D4F8C0236262022284F82423C8
:102C9000ADE7E569029B05FB0AF2002B40F02F82AD
:102CA00094F83B33002B00F0DA82794B5868D4F863
:102CB0002C33EB1AA3F5AB75D4F86033D71B8542E0
:102CC00028BF05460697DF19D4F86433C4F8F052DC
:102CD00043F10003C4F85433002384F840336E23D7
:102CE000A4F84833C4F8507304F1380014F0A3FE7C
:102CF000D4E9D4230544C4E9D823C4F84453A4F840
:102D0000686309F08DFA20B1D4F844331E33C4F857
:102D10004433B4F8E012039A8E1B002336B29E426D
:102D200084F84A33C4BF022384F84A330E2A029A35
:102D300000F05F82002A40F05F8294F82433002B79
:102D400040F07B8294F86C03414610F089F800282B
:102D500000F0BC82049B84F8383300200BB0BDE83F
:102D6000F08FE36AD4F81C03294618440DF090FF55
:102D70002946C4F82803E069464D0DF089FFE26951
:102D800094F8719041F64B539A4298BF0230C4F8C0
:102D90002C0348460DF0E0FB00F55F4019F00C0FE6
:102DA00000F14100A5FB003014BF2821002101EBF8
:102DB00090118031204614F0D6FEB4F8F632002B84
:102DC00000F07481D4F81C33E26AD4F82853134419
:102DD0005B1B0693D4F81833D4F8202394F871A021
:102DE00002FB0355238E30351AF00C0F03EB45051B
:102DF00040F0538150460DF0AFFB264B00F52340C9
:102E0000A130A3FB00304FEA901950460DF09CFB17
:102E10004D441F4B069A284458600123E56984F805
:102E2000243344E7D4F82C03E269D4F82833D4F8E7
:102E30002013B4F8F652121A0AFB02F20692D4F8E2
:102E4000182394F871A03033A94402FB0133C9431D
:102E5000258E894400FB09301AF00C0F05EB400564
:102E600040F0218150460DF077FB0A4B00F52340DE
:102E7000A130A3FB00304FEA901950460DF064FBDF
:102E80004D44034B069A2844586089E024B602005A
:102E9000080E0020D34D621094F8711094F8EE02E1
:102EA000DFF828A314F03FF98146E06A2946484438
:102EB0000DF0EEFE2946C4F82803E0690DF0E8FEA7
:102EC000E26941F64B539A4298BF0230C4F82C0392
:102ED00007A908A80CF0ECFF079B0093D4E9D801E0
:102EE000DDE9082310F0C2FF94F871300593054620
:102EF00018460DF031FB059B00F55F4013F00C0FF9
:102F000000F1410014BF28210021AAFB003001EB91
:102F100090118031204614F026FED4F87033E26A16
:102F200094F87100069305920DF016FB4AF2A13B4E
:102F300000EB0B03AAFB0331069B059AD4F8280388
:102F4000203B13441B1A4B445B1BA3EB91130693CA
:102F500094F87130B4F8309000F1300513F00C0F94
:102F60004FEA450509F1220940F09A801846059379
:102F70000DF0F2FA8344AAFB0B3A059B4FEA9A1A2A
:102F800018460DF0E1FA4D44914B069A55442844F9
:102F90005860D4F87033D31AB3F5D67F40F29B81D2
:102FA000E56984E6002284F83B23894AD4E9D60106
:102FB0001278C4E9D801CA464FF0010B02F0FF07AE
:102FC000002A3FF42FAE0DF00DFF074600283FF416
:102FD00029AEB4F80C23012A40F2F58094F824239A
:102FE000022A00F0F08094F83A23002A40F0EB80A7
:102FF000E06941F64B57B84240F2438194F8D92238
:103000000B2A00F26181734B33F8125094F8243389
:1030100005F5C865012BADB240F0378194F8C93091
:10302000032B40F04681D4F81C03E76A0744294685
:103030000DF02EFE03463846D4F81873C4F8183342
:10304000DB1BD4F82073294603FB07F70DF020FEA5
:10305000D4F82833C4F82803C01A07442946E06985
:103060000DF016FEE36941F64B529342B4F8F63286
:10307000D4F820234B446FEA0202A3EB0A03134463
:10308000D4F82C2398BF0230C4F82C03801A00FB1C
:103090000377012384F83A33C4E54FF06509B4E6B9
:1030A0004FF0650A6CE74FF06509E6E6029B002BDE
:1030B0003FF488AE94F871B0D4F81C23E36A584604
:1030C00002EB03090DF048FAD4F874338246A9F1F3
:1030D000200958469944D4F828B30DF035FA0AF57A
:1030E000234AA9EB0B090AF1A10AA9EB0009A5FBE8
:1030F0000A35A9EB95150695D4F828536AE6B4F875
:10310000F632002B7FF4CCAD84F83B33D4F82C138B
:1031100001FB1A2A94F8C520CDF818A0262A5BD006
:1031200094F8C620262A57D0BBF1000F27D033BB16
:10313000D4F874B3BBF1000F00F0D28094F87100A2
:1031400010F00C0F40F09B800DF006FA1F4DD4F8E4
:1031500074B300F52340A130A5FB0035AD0994F808
:10316000710010350DF0F0F9AAF1100A0AEB0B020C
:10317000551B2D1AB4F8F632D4F82C130695059881
:1031800003EB090B01FB0BFB0BF1300B10F00C0FE9
:103190004FEA4B0B61D10DF0DFF90C4D00F52340E8
:1031A000A130A5FB0030850905980DF0CDF9084B3D
:1031B000054405EB0B00E569586041F64B539D4211
:1031C00050D9069A73E500272CE500BFD34D621055
:1031D000080E002024B60200B4F8B423B21A120478
:1031E000A2D4059894F8B723002A18BF104605907A
:1031F0009AE7002A3FF4A6ADB4F80C23D2B1B4F894
:103200000E0394F8101300FB01118A4200F1010033
:103210007FF798AD002B3FF495AD002384F84A3337
:10322000A4F80E0308F05EFC00F00700013084F8FB
:10323000100387E5A4F80E2384E5E169D4F82C3364
:103240004046C91A13F014FF80B200283FF47AAD4B
:10325000149BC3B11880012080E56525A4E7B4F86C
:10326000F63253E7234A284606AB594613F0D3FFFC
:10327000214B84F83B03069A5868E56917E57525E4
:1032800070E71746CEE4012068E529460DF000FD01
:10329000E369BB42B4F8F672D4F82C3398BF02301D
:1032A0004F44A7EB0A07C4F82C03C01A00FB07F72A
:1032B000EFE694F8711094F8EE02E76A13F033FF2A
:1032C0000744D4F81C03B2E6FFF76CFC40F29D51B2
:1032D0003020FDF7FBFB40F2ED413020FDF7F6FB1F
:1032E00040F23F513020FDF7F1FB40F254513020C5
:1032F000FDF7ECFB0C0E0020080E0020014B1872AD
:10330000704700BF080E002008B54FF4FD7114F09F
:103310003DFCB0F5296F28BF4FF4296080B208BD8D
:1033200090F8EB32002B66D170B503F0FF0590F8F2
:103330002433032B84B0044601D004B070BD15F0D3
:1033400003FFD4E9D623801A61EB0301012871F150
:103350000003F2DB6FF00103834275EB01034DDBE9
:10336000E369B4F8BC20002B46D0B0FBF3F080B288
:10337000531C184480B2A4F83403B4F83423B4F8CE
:10338000E4329B1A1BB2002BD7DD94F86C030FF0CC
:10339000D7FF0028D1D0B4F8BC50B4F8FC10B4F872
:1033A000FA20FF230D4484F83933013DAD1AB4F8F7
:1033B0003433ADB2EB1A1A04BFD40DF10E06B4F8D3
:1033C00034130096002389B201222046FFF7F0FB58
:1033D0000028B2D0012816D1B4F83433BDF80E203D
:1033E00012FA83F39BB2A4F83433B4F83433EB1AF3
:1033F0001B04E4D5A1E770471846B9E740F2D15164
:103400003020FDF763FB40F20A613020FDF75EFBE0
:103410002DE9F047044682B0052900F2D980DFE8A3
:1034200001F0501603131C36042384F824330CF0E7
:10343000D1F80FF0DFF9B4F8BC20A4F8362300234C
:10344000A4F86A3384F8393302B0BDE8F087032367
:1034500080F8243302B0BDE8F0870BF04BFD054641
:10346000C4F8745394F871000DF06EF88542C0F002
:10347000A88094F87100D4F874430DF065F8574BA8
:10348000DA681444241ADC6002B0BDE8F08790F8D2
:10349000715028460DF060F8514900F55F4015F075
:1034A0000C0F00F14100A1FB003014BF28210021C6
:1034B00001EB90118031204602B0BDE8F04714F0D6
:1034C00052BBD0F874339BB9444B1B7C03F0FF0212
:1034D000002BA9D1B4F8E412009201232046FFF793
:1034E00067FB0028A3D040F2E4613020FDF7EEFA3C
:1034F00090F83A33002BE7D090F82433032BE3D134
:1035000090F8719013F052FB94F8D9320B2B5DD8E0
:10351000344AD4F8745332F81330C61803F5C8632C
:1035200048469FB20DF010F819F00C0FA5EB0008FB
:10353000B6B248463CD10DF00FF8DFF8A4A0D4F89D
:10354000F05200F2E733AAFB03234846A8EB931896
:103550000CF0FAFF2D1A48460CF0FEFF00F523434D
:10356000A133AAFB03239B09EB1A5A08603B2932BB
:1035700006FB03F3B3FBF7F36033A2EB53014145C2
:103580004FEA530302D81344434501D20DF016FE0F
:10359000E06931460DF07CFBE26941F64B539A42FB
:1035A00098BF02300023C4F82C0384F83A338BE729
:1035B000D4F8F0520CF0C8FFA8F13C082D1A65238E
:1035C000D2E74FF46A713020FDF780FAFFF7EAFA8C
:1035D0004FF4EE613020FDF779FA00BF080E0020AD
:1035E000D34D621024B6020090F82801704700BF46
:1035F00038B50B46212203F8022B0446D0F80920E7
:10360000D0F80DE0D0F811C0D0F81500C1F80220B4
:10361000D4F819201A61E27FD860B4F81D009A75B9
:103620008A78C3F804E0122AC3F808C0988215D932
:10363000B1F8075004212846FEF72AF8E8B15030C7
:1036400015F07FFAE8B904212846FEF737F880B96B
:103650006FF4F2731C440023237038BD0B4B23FA24
:1036600002F2D207E4D56FF4F2731C4400232370F6
:1036700038BDA0217720FDF729FA9C217720FDF79E
:1036800025FA9F217720FDF721FA00BF8100040071
:1036900008B5032807D8DFE800F004020402002080
:1036A00008BD012008BD40F225217720FDF70EFA64
:1036B0000B46062203F8032B044AB2F8330092F8B3
:1036C0003520A1F803009A70704700BF200E00203B
:1036D00008B540F2B6313220FDF7F8F9044A00236C
:1036E000A2F8BA3082F8703082F8BC30704700BF60
:1036F000200E002008B507F0A5FE034B18700BF054
:10370000B9FE052008BD00BF1000002008B507F075
:1037100099FE024B02461A70012008BD10000020DD
:103720002DE9F041064617469846A1B1B3681BB192
:103730002FB13846BDE8F0810120BDE8F081B8F135
:10374000000FF6D01549B27C91F84500BDE8F04174
:10375000463113F0B1BB114D05F15B0395F85A20CA
:1037600095F8900005F1890113F0A6FB95F87830E3
:10377000082B03D095F87B209A4207D095F8563055
:10378000012BD3D033B90028D0D1D6E795F85630E5
:10379000012BCBD90020BDE8F08100BF200E002016
:1037A000F8B5554C0546D4F8C0000023032D03801E
:1037B0003AD0052D45D0514913F057FE94F890109A
:1037C000D4F8C00013F065FE94F87D3094F845708D
:1037D0007BB194F85430032B2CD094F8780007F088
:1037E0002FFD474B002806461ABF012706461E46F6
:1037F00000E0434ED4F8C000314613F028FED4F860
:10380000C000394613F038FED4F8C0000CF026FA98
:10381000052D00D0F8BD236D3268C3F80A20B288A8
:10382000DA81236D5F72F8BD294613F0EEFDD4F8FE
:10383000C000C0E794F84D30002BCED094F87B0048
:10384000CDE70E46294613F0E0FDD4F8C070397874
:1038500021F0200141EA46113970236D1B6AC7F837
:103860000F30226D936AFB74190A1B0C7B75397536
:10387000D169108E13F0ACFCB875236DD4F8C0601C
:10388000D969D86A13F0AFFC030AF0753376236D5B
:10389000D4F8C060D86913F068FC030A7076B37678
:1038A000236DD4F8C0609A8CF276120A3277DA8CE3
:1038B0007277120AB277D3F8CE20C6F81F2093F899
:1038C000D23086F82330236D96F8242093F8D9302F
:1038D00022F01F0203F01F03134386F8243007F081
:1038E00093F996F8243003F01F0343EA401386F857
:1038F0002430D4F8C0005EE7200E0020A90E00207E
:10390000660E0020F8B51D4C1D4A94F87A30D75C3D
:10391000054638460E460BF0D7FC94F8983084F8EC
:103920008F701C4494F8BD40631E072B20D8DFE83D
:1039300003F0041D1F041F1F1F04FEF78FF840280B
:1039400028BF4020C0B221460BF0F8FA30460CF0F8
:1039500085F9214601202DB10BF09EFE003818BFDD
:103960000120F8BD0BF0B6FC0120F8BD0D20EAE700
:1039700040F619113220FDF7A9F800BF200E0020F3
:1039800078B6020010B5FEF763F80446FEF766F855
:1039900081B2204611F056FE48B10CF05FF90020CC
:1039A0000CF0C6F9044B062283F8702010BD4FF4CA
:1039B000C3613220FDF78AF8200E002038B5114D82
:1039C000FF2095F8B9100BF0B9FAFEF741F804465C
:1039D000FEF744F881B2204611F034FE68B10CF0D5
:1039E0003DF995F8B90010F00C0018BF28200CF034
:1039F0009FF9092385F8703038BD40F243613220C9
:103A0000FDF764F8200E002070B50646FEF720F89A
:103A10000446FEF723F881B2204611F013FE002879
:103A200046D0324C94F85430013B022B04D941F279
:103A3000E1413220FDF74AF8E6B994F87030042BE2
:103A400045D994F870300A2B3CD894F87030D4F8EB
:103A5000C42003F180439269053B52F82330984714
:103A60000E282AD8D4F8C4301B69BDE8704053F83A
:103A700020301847054613F040FE20B9284613F0C1
:103A800057FE0028D9D094F87030042B24D994F82C
:103A900070300A2B25D894F87030D4F8C42003F184
:103AA00080435269053B284652F823309847D7E7B0
:103AB00041F2DB413220FDF709F841F2F6413220B4
:103AC000FDF704F841F2D2413220FCF7FFFF41F24A
:103AD000D1413220FCF7FAFF41F271413220FCF76C
:103AE000F5FF41F272413220FCF7F0FF200E00207A
:103AF00038B5224C94F87D30002284F8A82083B198
:103B0000D4E928126FF000439A4208BFB1F1FF3F99
:103B100007D015F019FBD4E92823904271EB030379
:103B200003D2022384F8703038BD012007F014FB63
:103B30000028F6D007F0ACFA054615F005FB6B013E
:103B40005B1B4FEAD56262F10002520242EAD35295
:103B50005B025B1942F1000C4FEA8C1E9A014EEA9F
:103B6000936ED31A6EEB0C025B1942F100021B1824
:103B700042EB0101C4E92831D3E700BF200E002049
:103B800070B5474C0022236D62721A88628182B040
:103B90000546D8690E4613F0E8FA236D2084998C07
:103BA000DA8C61844FF47F43E3844FF6FF73A28481
:103BB0002385002D62D00121304613F011FD3278AB
:103BC0000346D20994F87D1009B1002A33D194F844
:103BD0007900344A002308286361938039D0324A3F
:103BE000511E07F05BFA002854D0637B43F00203B8
:103BF0006373002D3DD12D480268C4F81A202C4B68
:103C000082889A8094F95810206D13F0AAFA2949F5
:103C10002348022213F07BFE236D27491D88274885
:103C200093F8CD30A4F83350022284F8353013F0E5
:103C300080FE02B070BD5A7902F0C002402AC6D19F
:103C40001868606194F87900164A9B889380082868
:103C5000C5D1154B94F89000D4F8891060730022F8
:103C6000B3F87F00C4F80E10C4F81A2098801A82A6
:103C7000C8E70021304613F0B3FCBDE7D4F8C0001C
:103C8000694613F0EBFBD4F8C02012786B46C2F300
:103C9000801297E741F22C513220FCF717FF00BF4A
:103CA000200E0020340E00202E0E0020A90E002031
:103CB0003A0E002085420000B13600004A0E002076
:103CC00008B507F0BFFB034B187002F069FE012036
:103CD00008BD00BF10000020024B032283F87020B3
:103CE00004F01EBC200E002008B540F241413220F5
:103CF000FCF7ECFE10B504788CB004F00F042246FB
:103D000002A903F07DFA0BF0B5FB07F09BFB224AFA
:103D1000042C107002D005200CB010BD039B1F496D
:103D200093F800C091F88940A445F4D193F801C0FC
:103D300091F88A40A445EED193F802C091F88B40E7
:103D4000A445E8D193F803C091F88C40A445E2D192
:103D500093F804C091F88D40A445DCD15C7991F8CA
:103D60008E309C42D7D19DF8194091F890309C42FA
:103D7000D1D17F280ED000907F2491F88F3014701D
:103D800002A891F8A82091F8791002F001FF05200F
:103D90000CB010BDFFF7A8FF10000020200E00207F
:103DA0002DE9F047054684B006290AD8DFE801F07E
:103DB000631F0F0909090400B44C94F88230002BEA
:103DC0007DD10BF057FB052004B0BDE8F0870BF068
:103DD00051FBAE4A92F882302BB192F85430013B3D
:103DE000012B40F2DB80052004B0BDE8F087A74C32
:103DF000837C94F87D6094F88280012B86F0010624
:103E00007CD04FF0000994F85430032B00F0BC80B4
:103E100094F87870082F40F0A68094F845704FF021
:103E2000000A3A46032B75D16B6894F85B1018783A
:103E3000884200F05081002794F87830082B04D095
:103E400094F87B10994208BF0127BAF1000F40F0A7
:103E5000A380002E40F0DE80B8F1000FB1D094F8BE
:103E60005630012B03D0002BABD1002FA9D0002E50
:103E7000A7D00C20A8E7854C94F88230002BA0D066
:103E800094F85430022B00F0CD80012B00F05881C3
:103E9000032B40F06D81436894F85B2019789142C0
:103EA00000F0938094F85630012BE2D094F87B30E8
:103EB000082B86D094F878209A4282D1D9E794F8DA
:103EC0005430022B00F0C880012B7FF47AAF704988
:103ED00091F900307F2B00F04981029394F88F30E4
:103EE000019394F8793000937F260E70FF2304F13C
:103EF0004602062102F08EFD052065E7836893F8EF
:103F0000059009F0C009A9F14009B9FA89F94FEA09
:103F1000591978E70BF0AEFAB8F1000F3FF463AF30
:103F2000AB68AA7C5B4994F8450012F0C5FF18B94C
:103F3000BAF1000F00F0B080554991F900307F2BA5
:103F400000F01481029394F88F2094F87930009354
:103F50007F24019228460C704E4A3B46012102F014
:103F600059FD052030E7384607F04CF8002818BF07
:103F70000646B9F1000F40F0D38094F8457094F8EC
:103F800054303A46CA464DE794F84D20002A3FF493
:103F90003FAF94F87B703DE701265DE73C4991F91E
:103FA00000307F2B00F0E280029392F88F30019373
:103FB00092F8793000937F2428460C70FF23463214
:103FC000022102F027FD0520FEE6597894F85C20D6
:103FD00091427FF467AF997894F85D2091427FF425
:103FE00061AFD97894F85E2091427FF45BAF197984
:103FF00094F85F2091427FF455AF5A7994F860307D
:104000009A427FF44FAF427C94F85A309A427FF440
:1040100049AF2EE71046AB68AA7C1E4912F04CFF50
:10402000064619E71A4A92F900307F2B00F09E806D
:10403000029394F88F30019394F8793000937F21A4
:104040001170FF2304F14602002102F0E3FC01237A
:1040500084F8A8300B20B7E60D4A92F900307F2B88
:1040600000F08480029394F88F30019394F87930B3
:1040700000937F211170FF2304F14602062102F014
:10408000C9FC002384F8A8300B209DE6200E0020F8
:1040900010000020660E002094F85530023B012BE2
:1040A0003FF6A1AEB9F1000F3FF49DAE334991F94F
:1040B00000307F2B5AD0029394F88F2094F87930F7
:1040C00000937F260192FE230E702D4A284601217F
:1040D00002F0A0FC87E6587894F85C1088427FF4E0
:1040E000AAAE987894F85D1088427FF4A4AED87890
:1040F00094F85E1088427FF49EAE187994F85F10B1
:1041000088427FF498AE597994F8603099427FF4F0
:1041100092AE6F7C94F85A30FB1A5F425F418BE697
:104120003846A96807F04CF894F8452094F85430C4
:104130008246174600283FF475AE42F0020771E64A
:104140000E4991F900307F2B10D0029394F88F30F4
:10415000019394F8793000937F260E70FF2304F1C9
:104160004602002102F056FC05202DE6FFF7BCFDBB
:104170004FF46A613220FCF7A9FC00BF1000002058
:10418000660E002010B5164B93F900207F2A84B0EC
:1041900023D07F241C70134B93F87040052C15D04E
:1041A00093F87040082C0CBF03240124039493F867
:1041B0007940CDE9014293F88F400B4A93F8B9302A
:1041C000009402F0CBFD18B904B010BD0024EDE757
:1041D00004B0BDE8104002F0A3BBFFF785FD00BFAF
:1041E00010000020200E0020660E002010B5104A9E
:1041F00092F87030042B10D992F870300A2B11D835
:1042000092F87030D2F8C42003F18043D268053BA5
:10421000BDE8104052F82330184741F2D8513220FF
:10422000FCF754FC41F2D9513220FCF74FFC00BF9F
:10423000200E00200B46182203F8032B104AB2F878
:104240003FC092F84100A1F803C0CA789870012AD3
:1042500000D0704710B58C8800212046FDF718FA71
:1042600038B1204606F018FD00212046FDF726FA59
:1042700000B910BD40F219413220FCF727FC00BF05
:10428000200E002038B5244B5A7A0C4652BB1A6DCA
:10429000D3F80E10C2F80310598AA2F807105A7BFF
:1042A0001B6D12F0FD0F14BF012200229A702246EE
:1042B0001A4B132102F8031B03F1200E1D685868E6
:1042C0009968D3F80CC0C2F80CC010337345156060
:1042D0005060916002F11002F0D119781170002342
:1042E000A37138BD58890021FDF7D2F9054668B1A0
:1042F000008806F0D1FC28880021FDF7DFF90028AE
:10430000D5D040F2FD313220FCF7E0FB40F2F9312C
:104310003220FCF7DBFB00BF200E0020290E00201E
:104320002DE9F041264C94F8BC305F2B06460D4633
:1043300031D85A09234B13441F7994F8BA00C0F3BB
:10434000050800F03F000AF0BFFF84F88F80B6B187
:10435000394601200BF0A0F978B194F88830022B8F
:1043600039460CBF4020FF200AF0E8FD94F8A83041
:104370009BB128460BF072FC0120BDE8F081616F13
:104380003A4601200BF0D4FA0028E6D140F6481155
:104390003220FCF79BFB0027CFE7681D06F0CAFE22
:1043A00084F87C000028E4D017F00C0F14BF5524CB
:1043B00050240AF0A5F920460BF0DEFCD9E700BF37
:1043C000200E002078B60200F8B53D4C94F8BC30C1
:1043D0005F2B054629D85A093A4B13441E79636F5F
:1043E00073B1FDF735FB0746FDF738FB81B2384660
:1043F00011F028F9014600285DD00020FFF790FF5A
:10440000D4F894000BF062FC94F85430022B31D0B5
:10441000032B0CD0EDB140F20113A4F8A930002316
:1044200084F8B96084F88030F8BD0026D7E794F8A6
:104430008830012BEED116F00C0F2AD094F85930A9
:10444000012B14BF3146042100200BF0BBFC002DD2
:10445000E1D194F88830022B13D0012B1BD0002B14
:10446000DDD102F013FC84F8A90002F0D5F984F83C
:10447000AA00D4E794F88830022BDCD0002DCAD1F2
:10448000EBE70023A4F8A95084F8B96084F88030E1
:10449000F8BD3146D8E794F8B930A3F10203B3FA76
:1044A00083F35B094FF0000263F3070263F30F220B
:1044B000A4F8A920B3E74FF4BB613220FCF706FB58
:1044C000200E002078B6020038B505460C4606F0EE
:1044D00075FB420704D4A37803F0E003402B0DD012
:1044E00006F06CFB830704D4A37803F0E003202BD1
:1044F00004D0237803F03F03242B01D9002038BDDA
:104500000AF0DAFC94F90030A1786278002B01F00F
:104510001F03ACBF4FF01E0C4FF4967C42EA0323FE
:104520000CFB03F31A1AB2F5877FE7D39842E5D85C
:10453000054B2288A3F8BA2083F8BC102846BDE8B2
:10454000384003F085BF00BF200E002070B5294C15
:1045500094F8823086B06BB394F8A830054633B92E
:104560000378002B0CBF0123022384F8A83094F8B1
:104570007030082BDAB231D0092A14BF0126022686
:104580001D4890F900307F2B32D0CDE9023694F8E7
:10459000793001934FF07F0C94F88F300093174AD5
:1045A00080F800C094F8B930284602F0D7FB20B953
:1045B000022E15D1002006B070BD687810F01006EC
:1045C00011D0A9690220FFF77FFF059040B10023B9
:1045D00084F888300AF04EFF0598ECE70326CFE711
:1045E00002F0DEF9E6E702F09BF9304606B070BD56
:1045F000FFF77AFB200E002010000020660E00203E
:1046000010B504468AB006F01DFF2378174A03F060
:104610000F03072B107002D001200AB010BD6946AD
:10462000204602F087FE9DF8003000220292002B07
:10463000F2D19DF80130DB07EED50D4C019994F8CD
:1046400090209DF8110004F1890312F035FC002838
:10465000E2D0012104F1840012F077FAFF216846CC
:10466000FFF774FF0028D7D00320D6E71000002002
:10467000200E002070B5574C94F87030012B054681
:104680000E4603D9DAB2032A40F08D802B7B84F8E2
:1046900098302344AA6893F8BD3084F8B9302B6869
:1046A000C4F8943062672B79022B52D16B7B2BB10B
:1046B00094F8693013B9616E00297AD12B79012BF6
:1046C0002AD03BD894F87A30434A0133A2FB031531
:1046D00005F4FF7000EB550094F84C101B1A41FADA
:1046E00003F5ED07D8B215D40133A2FB030525F07D
:1046F000010000EB55001B1A41FA03F5E907D8B297
:1047000008D40133A2FB030222F0010000EB5202A5
:104710009B1AD8B284F87A0094F958000AF0C4FDC4
:1047200031460120FFF7EEF830B1FFF7E1F92B4BEE
:10473000D3F85035032B42D0002070BD023B012B33
:10474000F5D894F958000AF0AFFD042384F87030CE
:10475000EDE70AF089FC0BF01BFB09F0EFFF2048A6
:104760000BF066FA1F480BF05DFA1F480AF0A2FD35
:1047700094F86C30CBB102200FF088FF2B79032B1B
:1047800005D030460BF06AFA2B79032B8ED1636F7C
:10479000D3B931460120FFF7C3FD0028CCD06B7B95
:1047A000002B85D18AE70C2070BD01200FF06EFF31
:1047B000E4E794F8680001220CF018FA7EE740F66E
:1047C0008C213220FCF782F940F666213220FCF77A
:1047D0007DF900BF200E0020ABAAAAAA001000405D
:1047E0002001002055555500D6BE898E2DE9F04197
:1047F00004468AB006F026FE2378434A03F00F03EE
:10480000082B107004D0012528460AB0BDE8F081BD
:104810006946204602F026FD9DF80050002DF2D199
:104820009DF8013003F00303032BECD1374E96F8CB
:104830004D307BB396F87B7096F87C306BBB344B75
:1048400096F8902001999DF8110012F035FB002890
:10485000D9D096F87D3096F84580002B40D12D4B6D
:104860009DF812000299012829D0424612F024FB3B
:104870000028C8D02848012112F067F996F87C304A
:10488000002B39D121460120FFF77AF9032003F0EC
:10489000E3FFB9E796F87870CEE712F042FB0828FC
:1048A0008046CCD086F87900194B96F89020019973
:1048B0009DF8110012F000FBB845CAD0C7E74A794D
:1048C00002F0C002402AD0D1424612F0F5FA002888
:1048D000D0D10299384606F073FC0028CAD192E77D
:1048E000384606F0ADFC0B4A002803461ABF4FF0CD
:1048F000010803461346B3E70BF04AFA09F01EFF1E
:10490000002386F87C30BDE710000020200E002038
:10491000A90E0020660E0020A40E0020F0B585B080
:10492000474E96F8AB30B3B143781B07044612D517
:10493000037883B9D6F8AC0050300D4613F0E0FF91
:1049400048B9D6F8AC707A7D4AB963695978BB7AB0
:10495000B3EB111F03D00023184605B0F0BD636808
:10496000002B4AD096F8780008281CD1002A4ED097
:104970006269607C52781946120911F034F80346D6
:104980000028E8D06169D6F8AC204978C1F303115A
:10499000917261680868D06089881182D6F8AC206D
:1049A000617CD172D8E702AA0DF1070106F076FB0F
:1049B000002840D0D6F8AC104B7D8BB363699DF8CE
:1049C00007005A7802A9120911F00DF80346002BCE
:1049D000C2D06169D6F8AC204978BDF80C40029885
:1049E000D060C1F30311917214829DF80720D6F8AC
:1049F000AC1042F00202CA72AEE7D5B1012DAAD1C5
:104A000002F044F90028A6D096F88330A4E7627C2F
:104A1000F87A07F10C0105B0BDE8F04012F04CBA8D
:104A2000C87A9DF8072002AB0C3112F045FA034614
:104A3000CDE7012390E741F21D113220FCF746F843
:104A4000200E002043785A067ED42DE9F0430278E8
:104A500003F01F0352EA032387B0044671D00846CF
:104A6000618805296DD9227A6368C2F3040253EA8A
:104A7000020566D0374D2D68002D66D0002864D021
:104A8000A84700285DD0344E227AD6F8AC500123D6
:104A90002B766368C2F304028DF814201A0A05F11C
:104AA0001E0004A98DF810308DF811201A0C1B0E71
:104AB0008DF812208DF8133012F0F4FB628840F26A
:104AC000E24303FB02F2637BAA67D4F809202A6061
:104AD000A27B43EA0223E27B43EA02436B60228A21
:104AE000237A013AC3F34213A5F8622085F8923085
:104AF00096F8B930AB756378257896F8B8009A06C1
:104B000003F01F0354BF1E224FF4967245EA03239D
:104B100002FB03F591460EF04DF8074688460AF071
:104B2000F5F9CDF80490248A0095C21904F1060421
:104B3000D6F8AC00A4B2029448F10003503008F05B
:104B4000ABFE07B0BDE8F0837047034ED6F8AC501B
:104B5000A2E700BFFC000020200E00202DE9F0435A
:104B60000729044685B040680D4617463ED1002807
:104B700077D0637C012B00F09C806B4E96F8780018
:104B8000082852D002AA0DF1070106F087FA002882
:104B900000F0C5809DF8070002A913F02BFB8146A9
:104BA000062D96F84D8077D8B8F1000F08BFC8469B
:104BB0005E4B86F882801B6823B1394620469847B1
:104BC00086F88300636843B1627C86F89020196898
:104BD000C6F88910564A9B889380B6F88230A06840
:104BE00008B1072D31D005B0BDE8F08300287AD098
:104BF000637C012BC1D1437903F0C003402BBCD1AE
:104C0000494E96F87C30002BB8D012F08AF94FF05C
:104C1000000360F3070360F30F23A6F87830082839
:104C20004FF0010386F88030ACD16168607C13F0EE
:104C3000E1FA404A61688146607C06F00DFA03465D
:104C40000028ADD1A6F88200C9E796F878100829A7
:104C5000C9D0002BC7D006F05DFA012386F8813059
:104C6000C1E7002A45D0304E96F84D80814696F82F
:104C70008230002B51D06368002B95D102F006F8EA
:104C800018B196F88230002B47D1B8F1000F8FD1C0
:104C900006F0DCF980468BE7082D27D8002FE6D1F7
:104CA0006368002B80D16378DB06E7D54FF00108FD
:104CB0007EE7437903F0C003402B7FF45EAF1A4ECA
:104CC00096F87C30002B3FF459AF002F9DD196F819
:104CD000B910012999D106F0FFF986F87C00002867
:104CE0003FF44CAF91E7104E814659E74FF0000872
:104CF0005EE70D4C012584F8825094F8AB30002B10
:104D00003FF471AFD4F8AC00503013F0F9FD002837
:104D10007FF469AF84F8835065E7984648E740F62A
:104D2000FC413220FBF7D2FE200E00206400002060
:104D3000A90E0020980E00202DE9F04F354F847CFD
:104D400097F87D80012C83B006468A4693469946A3
:104D500088F0010833D0002497F87C502346E5B151
:104D600097F85420032A31D07268FAB197F8785036
:104D7000082D21D02846019306F044F9019B002814
:104D800018BF8046CBB197F88130002B3AD012F093
:104D9000D2F80023054687F881308BF800508AF856
:104DA000004089F8008003B0BDE8F08F019301F066
:104DB0006DFF019B0028D9D17BB90025EDE7836801
:104DC0005B7903F0C003402BC5D1C5E797F84D20B0
:104DD000002AC9D097F87B50CAE797F880100029BD
:104DE000EBD1B068019106F077F9054687F87C00B1
:104DF0000028D2D012F095F80828019908D087F839
:104E00007800CAE72846B16806F0DAF90546C4E733
:104E10000D46C2E7200E002008B506F013FB024B3A
:104E200002461A70012008BD1000002038B51B4C46
:104E30000E2094F8B9100AF081F8FCF709FE054637
:104E4000FCF70CFE81B2284610F0FCFB00B30546CF
:104E50000AF004FF94F8B90010F00C0018BF2820E5
:104E60000AF066FF681D94F8B95006F063F984F8FB
:104E70007C0048B115F00C0F14BF5525502509F0E2
:104E80003FFC28460AF078FF0A2384F8703038BDCA
:104E900040F22C613220FBF719FE00BF200E0020EB
:104EA00010B50B4C06F0CEFA0A4A94F87C3010701C
:104EB0001BB90AF0DFFA052010BD0AF069FF09F0FE
:104EC0003DFC002384F87C300AF0D4FA052010BDA4
:104ED000200E00201000002010B50C4C94F87C30FF
:104EE0005BB90B4A0023A4F8BA300121937084F80F
:104EF0007010BDE8104003F083BC0AF049FF09F0D0
:104F00001DFC002384F87C30EBE700BF200E00205E
:104F1000DA0E002010B50E4C94F87C307BB90D4BA6
:104F2000D4F8C0100020A4F8BA00987084F870007B
:104F3000FEF726FEBDE81040022003F08DBC0AF00B
:104F400027FF09F0FBFB002384F87C30E7E700BF74
:104F5000200E0020DA0E002010B50C4C94F87C30A6
:104F60005BB90B4A0023A4F8BA300121937084F88E
:104F70007010BDE8104003F043BC0AF009FF09F0CF
:104F8000DDFB002384F87C30EBE700BF200E00201F
:104F9000DA0E002010B50E4C06F054FA0D4A94F8C3
:104FA0007C3010705BB90C4A0023A4F8BA300121A0
:104FB000937084F87010BDE8104003F021BC0AF033
:104FC000E7FE09F0BBFB002384F87C30EBE700BF71
:104FD000200E002010000020DA0E002010B50F4C2B
:104FE00001F0DEFC06F02EFA0D4A94F87C301070C9
:104FF0005BB90C4A0023A4F8BA300121937084F8FD
:105000007010BDE8104003F0FBBB0AF0C1FE09F0D0
:1050100095FB002384F87C30EBE700BF200E0020D6
:1050200010000020DA0E002010B506F00BFA104C2C
:10503000104B0246002104F184001A7011F085FD26
:1050400094F87C305BB90C4A0023A4F8BA300121F3
:10505000937084F87010BDE8104003F0D1BB0AF0E3
:1050600097FE09F06BFB002384F87C30EBE700BF70
:10507000200E002010000020DA0E002010B506F0EF
:10508000E1F9104C104B0246002104F184001A7023
:1050900011F05BFD94F87C305BB90C4A0023A4F856
:1050A000BA300121937084F87010BDE8104003F00D
:1050B000A7BB0AF06DFE09F041FB002384F87C30A9
:1050C000EBE700BF200E002010000020DA0E0020C9
:1050D00038B5052003F0BCF948B1114C012094F813
:1050E000B9100AF06FFE0D2384F8703038BD0C4DF6
:1050F00095F87C305BB90B4A0023A5F8BA30012142
:10510000937085F87010BDE8384003F079BB044611
:105110000AF03EFE09F012FB85F87C40EBE700BF89
:10512000200E0020DA0E002038B503200021FEF703
:1051300037FB032003F08CF940B1012108460AF047
:1051400041FE0E4B0B2283F8702038BD0B4D95F8B5
:105150007C305BB90A4A0023A5F8BA30012193706C
:1051600085F87010BDE8384003F04ABB04460AF0E9
:105170000FFE09F0E3FA85F87C40EBE7200E0020F3
:10518000DA0E002070B5FCF763FC0446FCF766FC01
:1051900081B2204610F056FAA8B31D4C0E230546E6
:1051A000012084F8703003F057FB00210520FEF742
:1051B000F7FA062003F04CF9064670B194F8B910DE
:1051C00001200AF0FFFD2B78226DC3F3401301216B
:1051D00084F8913082F8CD1070BD94F87C305BB9C2
:1051E0000C4A00230121A4F8BA3084F8701093709F
:1051F000BDE8704003F004BB0AF0CAFD09F09EFA56
:1052000084F87C60ECE740F2AF613220FBF75EFC93
:10521000200E0020DA0E002070B5274C94F8BC3028
:105220005F2B2AD85A09254B13441D79636F6BB144
:10523000FCF70EFC0646FCF711FC81B2304610F07C
:1052400001FA014698B30020FFF76AF8D4F89400F9
:105250000AF03CFD94F85430022B1CD0032B0ED0E6
:1052600040F2011100220823A4F8A91084F8B950D3
:1052700084F8802084F8703070BD0025D6E794F85B
:105280008830012BECD115F00C0F09D129460020F4
:105290000AF098FDE4E794F88830022BE0D1F2E7B9
:1052A00094F85930012B14BF29460421EFE74FF43D
:1052B000BB613220FBF70AFC200E002078B602000A
:1052C00010B5B8B9A9B11C4A92F870300A2B29D987
:1052D00092F870300E2B2AD892F87030D2F8C42091
:1052E00003F1804392680B3BBDE8104052F8233035
:1052F000184710BD104C94F87C305BB90F4A00235E
:10530000A4F8BA300121937084F87010BDE8104001
:1053100003F076BA0AF03CFD09F010FA002384F895
:105320007C30EBE741F2A8513220FBF7CFFB41F292
:10533000A9513220FBF7CAFB200E0020DA0E002014
:1053400070B582B0FCF784FB0446FCF787FB81B2A2
:10535000204610F077F900283AD0204E0C2305465D
:10536000002086F8703003F077FA336D297893F8CF
:10537000CD4004EA511404F0010405202146FEF753
:105380000FFA042003F064F848B12B78326DC3F3B0
:10539000401386F8913082F8CD4002B070BD96F887
:1053A0007C3063B90E4A00230121A6F8BA3086F892
:1053B0007010937002B0BDE8704003F021BA019004
:1053C0000AF0E6FC09F0BAF9019886F87C00E9E7F2
:1053D00040F287613220FBF779FB00BF200E0020EE
:1053E000DA0E002070B53A4C94F8BC305F2B2ED802
:1053F0005A09384B13441D79636F73B1FCF728FBCE
:105400000646FCF72BFB81B2304610F01BF9014633
:10541000002858D00020FEF783FFD4F894000AF04B
:1054200055FC94F85430022B2DD0032B11D094F856
:105430008830022B13D0012B15D0DBB300220723B9
:1054400084F8B95084F8802084F8703070BD00254D
:10545000D2E794F88830012B19D0022BEDD100232C
:10546000A4F8A930EAE794F8B930A3F10203B3FA3B
:1054700083F35B094FF0000263F3070263F30F222B
:10548000A4F8A920DAE794F88830022BD3D115F0DC
:105490000C0F08D1294600200AF094FC94F88830BB
:1054A000022BC8D1DBE794F85930012B14BF2946F1
:1054B0000421F0E701F0EAFB84F8A90001F0ACF95F
:1054C00084F8AA00BAE74FF4BB613220FBF7FEFA7A
:1054D000200E002078B60200B0B582B0FCF7B8FA12
:1054E0000446FCF7BBFA81B2204610F0ABF8002866
:1054F0006CD0394C054601F0DDF994F8983023441E
:10550000002093F8BD7084F8B97002F0A1FF002864
:1055100043D094F87030022B2DD1012F1ED1E81CFE
:1055200005F008FE84F87C0028B1402509F0E8F871
:1055300028460AF021FC94F85430023B012B21D973
:10554000002340F608010522A4F87810C4F8803042
:1055500084F8A83084F8702002B0B0BD681D05F052
:10556000E9FD84F87C000028E5D017F00C0F14BF8B
:1055700055255025DAE729460020FEF7C3F9012F0B
:10558000CDD0EBE794F89830234493F8BD1001296F
:10559000D6D100200AF016FCD2E794F87C3063B92B
:1055A0000E4A00230121A4F8BA3084F870109370D9
:1055B00002B0BDE8B04003F023B901900AF0E8FB67
:1055C00009F0BCF8019884F87C00E9E74FF4A16188
:1055D0003220FBF77BFA00BF200E0020DA0E0020FD
:1055E00008B505F02FFF044B187009F043FFBDE824
:1055F0000840FFF771BF00BF1000002010B50D4C30
:1056000005F020FF0C4A94F87C3010702BB909F09B
:1056100031FFBDE81040FFF75FBF0AF0B9FB09F0AA
:105620008DF8002384F87C3009F024FFBDE8104099
:10563000FFF752BF200E00201000002038B5244C88
:1056400094F869300BB9616E39BB94F87030042B53
:105650003BD8DFE803F003031D03120094F87C300D
:105660005BBB1C4B00250122A4F8BA509D7084F846
:10567000702003F0C5F8284638BD94F8A8509DB9AD
:105680002846FEF7A1FE072384F87030284638BD6F
:10569000FFF722FF0025284638BD94F8680003F084
:1056A000FF020BF0A3FAD0E70120FEF78DFE0025E4
:1056B000082384F87030284638BD0AF069FB09F0E9
:1056C0003DF8002384F87C30CBE70C25E3E700BFEE
:1056D000200E0020DA0E00202DE9F0419D4C94F8B8
:1056E000573086B05BB194F8823005466BB12E78A6
:1056F000012E11D0022E00F0A580002E42D009F01C
:10570000B9FE052006B0BDE8F08194F88330002B87
:10571000F5D02E78012EEDD109F0ACFE94F8B93019
:10572000022B6B7800F0C08003F01803182BE8D12F
:1057300094F85430032B00F0BD80874A92F9003072
:105740007F2B00F00481029394F8793001937F213C
:1057500094F88F30009311700022039294F8B930BE
:105760007E4AFF21284601F0F9FA0028C9D0A9692C
:105770000120FEF7A9FE0028C3D0012384F8883059
:105780000320BFE709F076FE94F85430032BB8D01D
:105790006B7813F0100F14BF08220122C3F3001717
:1057A00032EA0303ADD1AB688DF815608DF8166051
:1057B0008DF81760002B00F094800DF117030DF1A8
:1057C00015020DF116012846FFF7B6FA9DF81530BF
:1057D00094F84580002B40F0AE80AB68AA7C5F490E
:1057E000404611F069FB78B994F85530023B012B23
:1057F00087D89DF81630002B83D09DF81530002BEC
:105800007FF47FAF4FF0FE08002F6DD0524890F923
:1058100000307F2B00F09B80029394F87930019345
:10582000002694F88F3000937F27039694F8B930C0
:1058300007704A4A4146284601F090FA00283FF492
:1058400060AF26E009F016FE94F85430032B3FF4C5
:1058500058AF6B7803F01803182B7FF452AF3E4912
:1058600091F900307F2B72D0029394F87930019334
:10587000002294F88F3000937F20039294F8B9307F
:105880000870364AFF21284601F068FA00283FF4E4
:1058900038AFA9690120FEF717FE00283FF431AFA9
:1058A00084F8886003202DE703F01903192B3FF4D7
:1058B0003FAF26E769680023B1FA81F11A4649092A
:1058C0002846FDF72DFF00283FF41BAFAB699B78FE
:1058D00013F0E00332D194F87E30002B7FF42DAF2B
:1058E0000FE74FF0FF088FE71B4A92F900307F2B3C
:1058F0002DD094F870107F200529107005D094F8F1
:105900007020082A0CBF0326012694F8792094F809
:105910008F100091CDE90123039694F8B9300F4A16
:105920004146284601F01AFA00283FF4EAAE00F09A
:10593000F7FF0520E6E648F0020865E7402B7FF414
:10594000FCAE94F87F30002B7FF4F7AED9E6FEF77B
:10595000CBF900BF200E002010000020660E0020B2
:1059600030B505468BB005F06DFD2C784E4B0246E8
:1059700004F00F04284669461A7001F0DBFC072C7E
:105980003CD04A4D002221466846FFF7E7F895F8DB
:10599000B930013B072B71D8DFE803F00F06700424
:1059A00070707004072C24D009F064FD052495F86C
:1059B0007C3083B920460BB030BD062C02D0F3D822
:1059C000022CF1D821466846FEF7EAF995F87C30BA
:1059D0000446002BEED00AF0DBF908F0AFFE0023FE
:1059E000204685F87C300BB030BD9DF80030012B8F
:1059F000DAD16846FFF770FE0446D8E79DF800301C
:105A0000022B13D0294D012B95F8B9203BD0BBB9FF
:105A100012F00C0F14D09DF80120D10610D522F001
:105A2000030201938DF80120029309E09DF80130F3
:105A30001E4D002223F0030301928DF801300292E3
:105A4000002207216846FFF789F895F8B930013B35
:105A5000072B13D801A252F823F000BFF35900001E
:105A6000EB5900007D5A0000F35900007D5A0000F8
:105A70007D5A00007D5A0000F359000041F2673161
:105A80003220FBF723F89DF8011000236FF341014A
:105A9000022A8DF801100293D2D0CAB263F3000239
:105AA00001938DF80120CBE710000020200E00208C
:105AB000F0B5B04C91B00D4606A901F03BFC94F84E
:105AC000A9303BB19DF8193000226FF300038DF827
:105AD0001930079294F8AA303BB19DF81930002292
