:10000000AD98002009780100B9280200F5770100B9
:10001000F5770100F5770100F57701000000000099
:10002000000000000000000000000000C579010091
:10003000F57701000000000061790100F57701000B
:10004000CD7B01002F8D0200CD7B0100CD7B010017
:10005000CD7B0100CD7B0100CD7B0100CD7B01007C
:10006000FF8C0200CD7B0100CD7B0100198D0200C9
:10007000CD7B0100CD7B0100CD7B0100CD7B01005C
:10008000CD7B0100CD7B0100CD7B0100CD7B01004C
:10009000CD7B0100CD7B0100CD7B0100CD7B01003C
:1000A000CD7B0100CD7B0100CD7B0100CD7B01002C
:1000B000CD7B0100CD7B0100CD7B0100CD7B01001C
:1000C000CD7B0100CD7B0100CD7B0100CD7B01000C
:0C00D000CD7B0100CD7B0100CD7B010049
:0400DC00FFFFFFFF24
:1000E00081F0004102E000BF83F0004330B54FEAE9
:1000F00041044FEA430594EA050F08BF90EA020F56
:100100001FBF54EA000C55EA020C7FEA645C7FEAE8
:10011000655C00F0E2804FEA5454D4EB5555B8BF0B
:100120006D420CDD2C4480EA020281EA030382EA7C
:10013000000083EA010180EA020281EA0303362D0E
:1001400088BF30BD11F0004F4FEA01314FF4801CE1
:100150004CEA113102D0404261EB410113F0004FF3
:100160004FEA03334CEA133302D0524263EB4303AA
:1001700094EA050F00F0A780A4F10104D5F1200E48
:100180000DDB02FA0EFC22FA05F2801841F10001A3
:1001900003FA0EF2801843FA05F359410EE0A5F177
:1001A00020050EF1200E012A03FA0EFC28BF4CF0A8
:1001B000020C43FA05F3C01851EBE37101F000455E
:1001C00007D54FF0000EDCF1000C7EEB00006EEB6B
:1001D0000101B1F5801F1BD3B1F5001F0CD34908F5
:1001E0005FEA30004FEA3C0C04F101044FEA44524C
:1001F00012F5800F80F09A80BCF1004F08BF5FEAD3
:10020000500C50F1000041EB045141EA050130BDB2
:100210005FEA4C0C404141EB0101013C28BFB1F5C4
:10022000801FE9D291F0000F04BF01460020B1FA0F
:1002300081F308BF2033A3F10B03B3F120020CDAE2
:100240000C3208DD02F1140CC2F10C0201FA0CF0C0
:1002500021FA02F10CE002F11402D8BFC2F1200C25
:1002600001FA02F120FA0CFCDCBF41EA0C019040DB
:10027000E41AA2BF01EB0451294330BD6FEA040424
:100280001F3C1CDA0C340EDC04F11404C4F120020F
:1002900020FA04F001FA02F340EA030021FA04F321
:1002A00045EA030130BDC4F10C04C4F1200220FA78
:1002B00002F001FA04F340EA0300294630BD21FAB6
:1002C00004F0294630BD94F0000F83F4801306BF7C
:1002D00081F480110134013D4EE77FEA645C18BF70
:1002E0007FEA655C29D094EA050F08BF90EA020F07
:1002F00005D054EA000C04BF1946104630BD91EAFF
:10030000030F1EBF0021002030BD5FEA545C05D101
:100310004000494128BF41F0004130BD14F5800440
:100320003CBF01F5801130BD01F0004545F0FE41B4
:1003300041F470014FF0000030BD7FEA645C1ABFE9
:10034000194610467FEA655C1CBF0B46024650EA20
:10035000013406BF52EA033591EA030F41F400214C
:1003600030BD00BF90F0000F04BF0021704730B5D2
:100370004FF4806404F132044FF000054FF00001A7
:1003800050E700BF90F0000F04BF0021704730B568
:100390004FF4806404F1320410F0004548BF40423D
:1003A0004FF000013EE700BF42004FEAE2014FEA92
:1003B00031014FEA02701FBF12F07F4393F07F4F6D
:1003C00081F06051704732F07F4208BF704793F070
:1003D0007F4F04BF41F40021704730B54FF4607483
:1003E00001F0004521F000411CE700BF50EA010286
:1003F00008BF704730B54FF000050AE050EA01022F
:1004000008BF704730B511F0004502D5404261EB9E
:1004100041014FF4806404F132045FEA915C3FF4DF
:10042000D8AE4FF003025FEADC0C18BF03325FEA7C
:10043000DC0C18BF033202EBDC02C2F1200300FA2D
:1004400003FC20FA02F001FA03FE40EA0E0021FA52
:1004500002F11444BDE600BF70B54FF0FF0C4CF440
:10046000E06C1CEA11541DBF1CEA135594EA0C0FF2
:1004700095EA0C0F00F0DEF82C4481EA030621EA2D
:100480004C5123EA4C5350EA013518BF52EA033568
:1004900041F4801143F4801338D0A0FB02CE4FF01A
:1004A0000005E1FB02E506F00042E0FB03E54FF04A
:1004B0000006E1FB03569CF0000F18BF4EF0010E42
:1004C000A4F1FF04B6F5007F64F5407404D25FEA3E
:1004D0004E0E6D4146EB060642EAC62141EA5551F1
:1004E0004FEAC52040EA5E504FEACE2EB4F1FD0C33
:1004F00088BFBCF5E06F1ED8BEF1004F08BF5FEAB1
:10050000500E50F1000041EB045170BD06F0004662
:1005100046EA010140EA020081EA0301B4EB5C040F
:10052000C2BFD4EB0C0541EA045170BD41F4801107
:100530004FF0000E013C00F3AB8014F1360FDEBF2C
:10054000002001F0004170BDC4F10004203C35DA08
:100550000C341BDC04F11404C4F1200500FA05F38B
:1005600020FA04F001FA05F240EA020001F000422C
:1005700021F0004110EBD37021FA04F642EB0601A2
:100580005EEA430E08BF20EAD37070BDC4F10C04CC
:10059000C4F1200500FA04F320FA05F001FA04F290
:1005A00040EA020001F0004110EBD37041F100017C
:1005B0005EEA430E08BF20EAD37070BDC4F1200587
:1005C00000FA05F24EEA020E20FA04F301FA05F2EF
:1005D00043EA020321FA04F001F0004121FA04F297
:1005E00020EA020000EBD3705EEA430E08BF20EA67
:1005F000D37070BD94F0000F0FD101F000464000A1
:1006000041EB010111F4801F08BF013CF7D041EA22
:10061000060195F0000F18BF704703F00046520026
:1006200043EB030313F4801F08BF013DF7D043EAF7
:100630000603704794EA0C0F0CEA135518BF95EAAD
:100640000C0F0CD050EA410618BF52EA4306D1D134
:1006500081EA030101F000414FF0000070BD50EA53
:10066000410606BF1046194652EA430619D094EADD
:100670000C0F02D150EA013613D195EA0C0F05D1C7
:1006800052EA03361CBF104619460AD181EA03011B
:1006900001F0004141F0FE4141F470014FF00000D3
:1006A00070BD41F0FE4141F4780170BD70B54FF06E
:1006B000FF0C4CF4E06C1CEA11541DBF1CEA1355EE
:1006C00094EA0C0F95EA0C0F00F0A7F8A4EB0504D0
:1006D00081EA030E52EA03354FEA013100F08880C7
:1006E0004FEA03334FF0805545EA131343EA126390
:1006F0004FEA022245EA111545EA10654FEA002645
:100700000EF000419D4208BF964244F1FD0404F5FD
:10071000407402D25B084FEA3202B61A65EB030559
:100720005B084FEA32024FF480104FF4002CB6EB16
:10073000020E75EB030E22BFB61A754640EA0C0096
:100740005B084FEA3202B6EB020E75EB030E22BFD6
:10075000B61A754640EA5C005B084FEA3202B6EB17
:10076000020E75EB030E22BFB61A754640EA9C00D6
:100770005B084FEA3202B6EB020E75EB030E22BFA6
:10078000B61A754640EADC0055EA060E18D04FEA64
:10079000051545EA16754FEA06164FEAC30343EA04
:1007A00052734FEAC2025FEA1C1CC0D111F4801FD1
:1007B0000BD141EA00014FF000004FF0004CB6E7CA
:1007C00011F4801F04BF01430020B4F1FD0C88BF69
:1007D000BCF5E06F3FF6AFAEB5EB030C04BFB6EB74
:1007E000020C5FEA500C50F1000041EB045170BD67
:1007F0000EF0004E4EEA113114EB5C04C2BFD4EB94
:100800000C0541EA045170BD41F480114FF0000E17
:10081000013C90E645EA060E8DE60CEA135594EA93
:100820000C0F08BF95EA0C0F3FF43BAF94EA0C0F96
:100830000AD150EA01347FF434AF95EA0C0F7FF40B
:1008400025AF104619462CE795EA0C0F06D152EA5F
:1008500003353FF4FDAE1046194622E750EA410643
:1008600018BF52EA43067FF4C5AE50EA41047FF454
:100870000DAF52EA43057FF4EBAE12E753B94AB924
:10088000002908BF00281CBF4FF0FF314FF0FF3098
:1008900000F00CB8ADF1080C6DE904CE11F0CCFFFE
:1008A000DDF804E0DDE9022304B07047704700BFC3
:1008B0002DE9F00791E8F807B2E802105B1854EB55
:1008C0000C04B2E802104D4156EB0C06B2E80210DF
:1008D0004F4158EB0C08B2E8021059EB01095AEBF2
:1008E0000C0A80E8F80780410130BDE8F007704746
:1008F0002DE9F00791E8F807B2E802105B1A74EBF3
:100900000C04B2E802108D4176EB0C06B2E802103E
:100910008F4178EB0C08B2E8021079EB01097AEB11
:100920000C0A80E8F80780414042BDE8F0077047B4
:100930002DE9F007524290E87800B1E880071740AF
:10094000DB1918EA020854EB080419EA020955EB0E
:1009500009051AEA020A56EB0A0678C090E8780000
:10096000B1E8800717407B4118EA020854EB0804FD
:1009700019EA020955EB09051AEA020A56EB0A06BA
:1009800078C080410130BDE8F00770472DE9F007DD
:10099000524290E87800B1E880071740DB1B18EA64
:1009A000020874EB080419EA020975EB09051AEA52
:1009B000020A76EB0A0678C090E87800B1E8800772
:1009C0001740BB4118EA020874EB080419EA02094F
:1009D00075EB09051AEA020A76EB0A0678C080412F
:1009E0004042BDE8F00770472DE9F00152424FF058
:1009F000040890E8300091E8C000A31B1340E41AFB
:100A0000F618EB1B1340ED1AFF1830C0C0C1B8F147
:100A10000108EED1BDE8F001704700BF00B592E8D3
:100A2000DC072DE9DC07B1E8805702B4A7FB0251CF
:100A30000A95A8FB020BE7FB6310E9FB62B00B9180
:100A4000A8FB0351EAFB6201E7FB64B5E7FB66051F
:100A5000E8FB6615CDF830B0A9FB03B6EAFB6316D8
:100A6000ECFB6356E8FB640BE9FB641BEAFB645B8D
:100A7000ECFB646B0D90ACFB0230059CEEFB62500E
:100A8000E9FB6460EAFB64B0E7FB6431E8FB6451B6
:100A9000069CE8FB6461E9FB64B1EAFB64010E9328
:100AA000A7FB0432079CE7FB6462E8FB64B2E9FB46
:100AB0006402EAFB6412049CE9FB6453EAFB64638E
:100AC000089CE7FB64B3E8FB6403E9FB6413EAFBFF
:100AD00064230F955DF8049B99E80006DDF800801B
:100AE000A9FB0854EAFB68B4DDF81080ECFB68044D
:100AF000EEFB6814E9FB6824EAFB6834DDF8048047
:100B0000EEFB6865E9FB68B5EAFB6805DDF8148073
:100B1000ECFB6815EEFB6825E9FB6835EAFB6845E8
:100B20000F96DDF80880AEFB0876E9FB6806EAFB65
:100B30006816DDF81880ECFB6826EEFB6836E9FBEA
:100B40006846EAFB6856DDF80C80ECFB68B7EEFB04
:100B50006807E9FB6817EAFB6827DDF81C80ECFBF7
:100B60006837EEFB6847E9FB6857EAFB686708B03F
:100B700000BD00BF2DE9F14F87B0FFF74FFFDDF853
:100B80001C8008F1200888E8FF00FFBC87E87F0888
:100B9000BDE8F08F00B591E89857A3FB035201958B
:100BA000A3FB0401E3FB6420E3FB67100292A3FBB9
:100BB0000752E3FB6802E4FB6415E3FB6805E3FB13
:100BC00069250391A4FB07B6E3FB6926E3FB6A569C
:100BD000E4FB670BE4FB682BE3FB6A5BE3FB6C6BFA
:100BE0000490A4FB0810E4FB6950E3FB6C60E3FB9A
:100BF0006EB0E7FB6721E4FB6951E4FB6A61E3FB4C
:100C00006EB1E4FB6E010592A7FB0832E4FB6A6259
:100C1000E4FB6CB2E4FB6E02E7FB6E12E7FB685389
:100C2000E7FB6963E4FB6CB3E7FB6C03E7FB6E1364
:100C3000E8FB6E230695A7FB0954E7FB6AB4E7FBC4
:100C40006C04E8FB6C14E8FB6E24E9FB6E34E8FBF3
:100C50006865E7FB6AB5E8FB6A05E8FB6C15E9FB2C
:100C60006C25E9FB6E35EAFB6E450796A8FB097615
:100C7000E8FB6A06E9FB6A16E9FB6C26EAFB6C36C0
:100C8000EAFB6E46ECFB6E56E8FB69B7E9FB6907C9
:100C9000E9FB6A17EAFB6A27EAFB6C37ECFB6C4757
:100CA000ECFB6E57EEFB6E6700BD00BF2DE9F14F08
:100CB00087B0FFF76FFFDDF81C8008F1200888E897
:100CC000FF00FFBC87E87F08BDE8F08F30B44FF02D
:100CD000000310F8014B11F8015B013A84EA0504A6
:100CE00043EA0403F5D1A3F101034FEAD37030BC0A
:100CF000704700BF4FF0000310F8012B013943EAA1
:100D00000203F9D1A3F101034FEAD370704700BF8A
:100D100030B411F8014B12F8015B6C4000F8014B44
:100D2000013BF6D130BC70472DE9F00791E8F80798
:100D3000B2E802105B1854EB0C04B2E802104D410B
:100D400056EB0C06B2E802104F4158EB0C08B2E823
:100D5000021059EB01095AEB0C0A8941B3F1FF3338
:100D600074F1FF3475F1FF3576F1000677F1000775
:100D700078F1000879F101097AF1FF3A51F10001A7
:100D80005B184C414D4156F1000657F1000758F1F0
:100D9000000859EBD1795AEB010A80E8F807BDE861
:100DA000F00770472DE9F00791E8F807B2E8021064
:100DB0005B1A74EB0C04B2E802108D4176EB0C0662
:100DC000B2E802108F4178EB0C08B2E8021079EB20
:100DD00001097AEB0C0A89415B184C414D4156F1EF
:100DE000000657F1000758F1000859EBD1795AEB8A
:100DF000010A80E8F807BDE8F007704718EB04081F
:100E000059EB05095AEB060A5BEB070B5FF0000C88
:100E10004CF1000C18EB050859EB06095AEB070AD0
:100E20005BEB070B50EB0C005FF0000C51EB0C017F
:100E300052EB0C0263414CF1000CB8EB070879F15E
:100E400000097AF1000A7BEB040BA841B141A241F1
:100E5000B3416CF1000CBBEB050BB041B941AA41A9
:100E6000BB416CF1000C4CF001068CF0020718EB52
:100E7000060859EB6C095AEB6C0A7BEB6C0B70EBB8
:100E80006C0471EB6C0572EB670653EB6C076CEB53
:100E90006C0C18EB0C0059EB0C015AEB0C025BF1DB
:100EA000000354F1000455F1000556EBDC7657EBD6
:100EB0000C0770472DE9F14F87B0FFF7AFFDDDF864
:100EC0001080DDF81490DDF818A0FFF797FFBDE85B
:100ED000000FFFF793FF03B05DF8048B88E8FF0075
:100EE000BDE8F08F2DE9F14F87B0FFF753FEDDF835
:100EF0001080DDF81490DDF818A0FFF77FFFBDE843
:100F0000000FFFF77BFF03B05DF8048B88E8FF005C
:100F1000BDE8F08F2DE9F047A74D86B0EA7B0023AE
:100F2000CDE902338DF80E206A7D8DF81020AA7D60
:100F30002B788DF81120EA7D8DF809308DF812207C
:100F40006B782A7E8DF80A308DF81320AB786A7E94
:100F50008DF80B308DF81420EB7895F826208DF85D
:100F60000C30C41D2B798DF80D3007460E4624F049
:100F700007040AB18DF80F30002E08BF204602A9E1
:100F800018BF002000F06EFD95F800806B784FF0E0
:100F9000000A984404445FFA88F8D1465FFA8AF35D
:100FA0004345C0F0F7800334002E24F00304494683
:100FB0000CBF2046002000F047FFA978044479B117
:100FC000EB78EA7BE01C20F00304002E1A4408BFF3
:100FD00020466B89D2B218BF002000F0A9FF04445C
:100FE00095F827308BB1697A79B195F82830E01CF3
:100FF000002B20F0030414BFFF222522002E0CBF7B
:101000002046002001F084F80444297B81B1AB78AC
:1010100023B995F827305BB16B7A4BB1E01D20F016
:101020000704002E0CBF2046002009F0A1FD044457
:10103000624B1B6863B1297951B1E01C20F00304B5
:10104000002E08BF20466A7B18BF00209847044442
:101050005B4B1B6853B1A97B41B1E01C20F003043A
:10106000002E0CBF2046002098470444554BD3F86F
:101070000080B8F1000F0FD0E97B69B1E01CAB7CB8
:10108000009320F00304002E08BF20466B7C2A7CCE
:1010900018BF0020C047044495F826306BB1297969
:1010A00059B1E01C20F00304002E08BF20462A7D21
:1010B00018BF002001F04EF80444E87F68B16B7E51
:1010C000A97D033424F0070444F0040419442246A3
:1010D0003346C9B201F07EF8044495F82010002987
:1010E00062D0E01D20F00708002E4FF0FB020CBF7D
:1010F0004046002012F030FC08EB00041EB9FB2132
:1011000040460DF013FBA97E00294FD0AB7F002B8A
:101110004CD0E01D20F00708002E4FF48C720CBF5D
:101120004046002012F018FC08EB00042B7EA97D3D
:10113000A87F033424F0070444F004041944224631
:101140003346C9B201F038F804442EB9A97E4FF4F1
:101150008A7240460DF00CFBEB6A13B106B9EC62E3
:10116000283495F8241089B1E01D20F00705002EE1
:1011700042F210720CBF2846002012F0EDFB2C1832
:1011800026B942F2107128460DF0F8FAE01B06B0BD
:10119000BDE8F0872B7AEA79A979687912F0AEFB7D
:1011A0000AF1010A8144F9E68846A7E7002ED3D167
:1011B000324631463046CDE7B008002054000020CA
:1011C0005C000020580000208FB572B6194B1D6BD3
:1011D000E5B9BFF34F8F1849184BCA6802F4E062B3
:1011E0001343CB60BFF34F8F00BFFDE7B4FBF6F4B2
:1011F000DAB20133002CF9D102F110036B440A2654
:1012000003F80C4C32B901A8A847E2E704460023D2
:101210000A26EDE7531E04AC54FA83F4DAB2C3B2E3
:10122000B3FBF6F706FB1733303304F80C3CB0FB86
:10123000F6F0E7E7B008002000ED00E00400FA0552
:101240001FB5164C237A8DF80930E3798DF80830F4
:10125000A379ADF80C3002A86379ADF80A3007F035
:101260005FFF18B1B5210320FFF7AEFF012301A8EE
:101270008DF8043013F015FD08B1B921F3E7A07C17
:1012800007F07EFF08B1BC21EDE7607C07F072FF3C
:1012900008B1BD21E7E704B010BD00BFB0080020D1
:1012A00038B50546002842D010F0BCFE10B94FF00A
:1012B000FF3038BD0DF0ECFCB0F5FA7FF7D81E4CCE
:1012C0001E482563002500F085FA2622294620467F
:1012D00084F8345084F8355084F8275084F8285026
:1012E000E56284F8265011F077F91B22627140F212
:1012F0001B32E28040F2023240F2011322811F22AF
:101300002380628101234FF40272A370A2812375AE
:1013100044F60112FB232282A3836384EFF310843B
:1013200072B600F077FF2CB962B62046C1E76FF0C5
:101330001500BEE72846BCE7B008002041120000B7
:1013400010B5002840F0A680554C94F83430002B9E
:1013500040F09D80A1B1002A6DD00139142900F21E
:101360009980DFE801F00B191C2C545C75325F6228
:1013700070383E4B507A7D8B8E91820013782370AB
:1013800001210020FFF7C6FDB0F5803F80F2858087
:10139000012384F8353010BD13786370F0E793783B
:1013A000002B48D0D378002B45D013781A2B42D984
:1013B00053781A2B3FD91368C4F80530E0E7137847
:1013C000E278934237D3A370DAE71378A278934296
:1013D00031D8E370D4E71378A27893422BD8E37323
:1013E000CEE713783BB35378013BDBB2F82B22D81E
:1013F000138823822B4B92789A70C1E71078E0749F
:101400000BF0F4F8BCE71378ABB12375B8E71378A9
:1014100094F827200AB1012B0DD96372B0E7138825
:101420006381ADE713782371AAE794F82610137847
:1014300021B9012B04D86FF01500ACE7002BFAD0CE
:10144000137863739CE71378082BF4D8A37397E79A
:101450001388FF2BEFD8237392E7137863758FE718
:1014600013780E2BE7D8A3758AE713680E49C4F8E2
:101470001A3053684B6013890B8181E71378E37549
:101480007EE7137863767BE71378237678E74FF06F
:10149000FF3080E76FF02C007DE76FF00B007AE7FC
:1014A000B0080020C0080020CA08002070B50D4612
:1014B0000646F0B1E9B111F007041AD100F0BEF808
:1014C000D0B1304610F05AFE0D4E214686F8360057
:1014D0002846FFF71FFD15F0E7F996F83600F16A88
:1014E00007F0C8FEFFF7ACFE012386F83430204633
:1014F00070BD6FF01500FBE74FF0FF30F8E700BF5D
:10150000B008002010B5084C94F834302BB107F027
:10151000CDFE94F8360010F04DFE12F064FB002072
:1015200084F8340010BD00BFB008002050B1074B54
:1015300003F1140253F8041B40F8041B9342F9D141
:10154000002070476FF01500704700BF18CB0200F5
:10155000074B93F8352010B532B993F834401CB9D5
:1015600007F052FE204610BD4FF0FF30FBE700BFF2
:10157000B0080020074B93F8352010B532B993F826
:1015800034401CB907F054FE204610BD4FF0FF3028
:10159000FBE700BFB0080020074B93F8352010B5DB
:1015A00032B993F834401CB907F0F0FD204610BD65
:1015B0004FF0FF30FBE700BFB0080020074B93F867
:1015C000352010B532B993F834401CB913F0B2FB92
:1015D000204610BD4FF0FF30FBE700BFB0080020F1
:1015E000074B93F8352010B532B993F834401CB945
:1015F00013F0A3FB204610BD4FF0FF30FBE700BF08
:10160000B0080020054B10B593F834401CB907F022
:101610009FFA204610BD4FF0FF30FBE7B0080020D6
:1016200007C8024B83E8070000207047E808002045
:10163000014B9B68184700BFE8080020024B9868E0
:10164000003818BF01207047E808002073B52E4D00
:10165000031D04462B60284608F026FD0228064696
:1016600006D12949204611F064FA304602B070BD17
:10167000042842D12B78092B0AD0252B1ED02946CD
:10168000204611F0BBFAB0F5817F2DD3722112E014
:1016900005213E2011F020FA0028F0D1EB782A79BC
:1016A00001A943EA02236846ADF8003011F0B6FE06
:1016B0000028D0D053210820FFF786FD1A213E20B4
:1016C00011F00AFA0028DAD16B68C3F30F23ADF8E2
:1016D00004306946112301A88DF8063011F0C8FEC8
:1016E0000028B8D06521E6E70028B4D0A17820789A
:1016F00011F0F2F90028B8D1ADE70828B5D10249B8
:10170000204611F045FAB0E7F4080020074B4FF0EF
:10171000FF3141F6FF72C3E9001205490022C1E919
:1017200000221F21C3E90212704700BF0000002001
:10173000F80900203F280CD801380B4BC0F34212A7
:1017400000F01F0053F8223023FA00F000F00100EF
:101750007047FF2806D04038C0F34212034B00F018
:101760001F00EFE70120704700000020F80900206B
:101770000146074B006849681A4603C240F48C22B0
:101780001A6041F0107242F4FF625A60704700BF65
:10179000000000200246024B0068516803C37047F6
:1017A000F80900200246024B0068516803C37047E5
:1017B000080000200138064BC0F3421203EB8203FD
:1017C00000F01F009B6823FA00F000F00100704752
:1017D00000000020014B1860704700BF000A002085
:1017E00010B5FFF793FF12F0B2FC034B1B680446E1
:1017F00003B19847204610BD000A00200B880288DC
:10180000F0B5C3F30E049EB204F11803C57CC35AAD
:1018100005352A442B4497B213FA82F3013B4288E0
:10182000B3FBF7F313FB07439BB29A42044A93BFFF
:1018300022EA0603324013439BB20B80F0BD00BF87
:101840000080FFFF10B5114B00EB41041A7863894B
:10185000B3FBF2F303FB0223013A1A44B2F5706FB3
:10186000027928BF00231A448378B2FBF3F01944AD
:1018700003FB1020091AB1FBF3F003FB1013134410
:101880006FEA43436FEA5343638110BD040A0020AB
:1018900010B5124BE0B15A78022A04D040F2591127
:1018A0001720FFF791FC03225A70026812F007011B
:1018B00002D04FF4AF71F3E75C685A6022440260D3
:1018C0009A60BDE81040302203F10C0010F084BE95
:1018D00001225A70C3E9010010BD00BF040A0020B4
:1018E0002DE9F041254E96F801E00EF0FD0CBCF11B
:1018F000010F04D040F273111720FFF765FC91F837
:101900000680B8F1080F02D940F27511F4E7CF79DB
:1019100097B34546022D726838BF02257B1D5C00D7
:1019200002EB43036A1E13446D422B408D884544ED
:10193000013DC8F100022A404FF6FE75AA4202D9C5
:101940004FF4C071D8E7BEF1030F12D106EB80004F
:101950001C1BC56815B140F28511CDE7C460A770A6
:10196000228084F803C0087A09682071080CE0809E
:10197000218107FB02337360BDE8F081040A002077
:101980002DE9F047364C6378012B65D0032B04D04A
:1019900040F295111720FFF717FCD4E901329A4263
:1019A00002D04FF4CC71F5E72546002305F80C3B37
:1019B0001E460B22994655F82200013A58B190F87C
:1019C00004808178B8F1FF0F2FD180F804908E4207
:1019D0003CBFCEB20123511CEDD103B126700B26C2
:1019E00040F6FF6955F826709FBB013EFAD20423EA
:1019F00063700020BDE8F08755F82CE0BEF1000FC1
:101A000006D09EF804A0C24504BF9EF802E07744C9
:101A10000CF1FF3CBCF1000FEEDA3944FF2907D985
:101A200003B126704FF49A71B4E794460027F1E7AA
:101A30000771CCE707EB41033846A3F80A90FFF79C
:101A400001FF08F10108BB785FFA88F18B42F1D8F9
:101A5000CBE74FF00008F6E7022360686370C9E740
:101A6000040A00202DE9FF474A788B781344FF2BA6
:101A700006460C4604D940F2AB111720FFF7A4FB31
:101A80000B78934202D940F2AF11F6E7DFF8D48128
:101A9000009038B198F80130022B02D00020FFF7F7
:101AA000E1FF6846FFF7F4FE00276F4A6378019272
:101AB00008254FF45A7201A93846ADF808208DF870
:101AC0000B308DF80A508DF80C70FFF709FF674A4C
:101AD000A378019201A94FF47A720120ADF8082091
:101AE0008DF80B308DF80A508DF80C70FFF7F8FE6A
:101AF0005F4AE37801924FF0FF094FF4AC7201A9FD
:101B00000220ADF808208DF80B308DF80A508DF8C2
:101B10000C90FFF7E5FE574A2379019201A9902224
:101B20000320ADF808208DF80B308DF80A508DF8A1
:101B30000C90FFF7D5FE63794F4A01928DF80B3078
:101B4000A822012301A90420ADF808208DF80C304B
:101B50008DF80A50FFF7C4FEA379484A0192CDE9F7
:101B600002778DF80A508DF80B308DF80C901BB170
:101B70000AF030FDADF8080001A90520FFF7B0FE1E
:101B80003F4AE3790192082580224FF0FF0901A91D
:101B90000620ADF808208DF80B308DF80C908DF8EC
:101BA0000A50FFF79DFE237A364A01928DF80B30DA
:101BB0007822022301A90720ADF808208DF80C3007
:101BC0008DF80A50FFF78CFE2F4A637A01920027A6
:101BD0004FF40A7201A92846ADF808208DF80B30A1
:101BE0008DF80A508DF80C70FFF77AFE274AA37A19
:101BF000019201A94FF48C720920ADF80820DFF89A
:101C000090A08DF80B308DF80C908DF80A504FF4A1
:101C10008879FFF765FEE37A8DF80B3001A90A2079
:101C2000CDF804A0ADF808908DF80A508DF80C702E
:101C3000FFF756FE237B8DF80B3001A90B20CDF862
:101C400004A0ADF808908DF80A508DF80C70FFF7DD
:101C500047FEFFF795FED8F80400801B04B0BDE8EE
:101C6000F08700BF040A0020C16601004966010038
:101C70004158000063670100F9C500005568010084
:101C80006568010061830000C9820000B58300001F
:101C90005D840000034B03EB8003D86800B18078BB
:101CA000704700BF040A0020F8B54FF6FF730380A9
:101CB000184B03EB81030546D868B8B186780379E1
:101CC000B3FBF6F206FB1233DBB219460A1D00EB3A
:101CD0004202B2F902705488002F09DB0131B1FBD6
:101CE000F6F206FB1211C9B28B42EFD10020F8BD0B
:101CF000FF29FBD0C4F30E03C4782B8024B940F233
:101D0000C7211720FFF760FA5380BDE8F84011F0B3
:101D1000D4BD00BF040A00201E4B03EB810370B545
:101D2000DC6805464CB3B0F5706F04D340F2D521A2
:101D30001720FFF749FA0146204611F0A0FDFF28C1
:101D4000014604D02046BDE8704011F0B6BDA07831
:101D5000B5FBF0F300FB1353DBB219460A1D04EB8D
:101D60004206B6F90260002E09DB0131B1FBF0F248
:101D700000FB1211C9B28B42F0D1002070BDFF29C7
:101D8000FBD08B4204EB42021CBF0023E370558062
:101D9000D8E700BF040A0020094B03EB810310B50C
:101DA000DC680146204611F06AFDFF28014604D098
:101DB0002046BDE8104011F080BD002010BD00BFDE
:101DC000040A00200F4B03EB810370B5DC68014669
:101DD0000646204611F053FDFF28054610D0014667
:101DE000204611F06AFDE2882389014643EA024356
:101DF0003046984720462946FFF724FD002070BD55
:101E00000320FCE7040A002038B50E4B827903EB6F
:101E100082030446D86808B9022038BD8278E17987
:101E20009142F9D24B1CE37100EB41035D89B3F998
:101E30000A30002BF3DBA58011F03FFD206000206D
:101E4000EBE700BF040A002070B5044610F0030061
:101E50000E4603D049211820FFF7B6F911F0B3FC64
:101E6000054624B103483146046011F0ACFC284615
:101E700070BD00BF400A00202DE9F04F1E4C85B018
:101E800092462268BDF83CB098468146BDF838308D
:101E90000D461AB95B211820FFF796F91A460A2158
:101EA0005046039311F03AFB5A4606460921404634
:101EB00011F034FB31180746206811F0AFFC039B8A
:101EC000C9F8000018B9286005B0BDE8F08F841982
:101ED0002C60D9F800000093524631460A2311F0D5
:101EE000CFFA2868CDF838B009234246394605B004
:101EF000BDE8F04F11F0C4BA400A002070B50E469C
:101F0000044611F014FB0546304611F010FB044B5B
:101F10002A1821461868BDE8704011F0A9BC00BF1E
:101F2000400A0020014B186811F06BBC400A0020E9
:101F3000F8B511441D4EC9B210F00305317003D03D
:101F40004E210920FFF740F91F2B19D89B009BB2A7
:101F5000033323F003039BB208B17060338101EBBC
:101F600081047668E2004FF0010C00EBC404EFB28C
:101F7000B94212D8D01D03FB010020F00700F8BDC4
:101F8000FF2B4FEA430204D9FF339342DFDB93B2C6
:101F9000DEE77C2AFBDC7C23DAE710B186F800C0A0
:101FA0007460013528361C44E1E700BF440A002074
:101FB00038B5144A147853680021C8B2844203D853
:101FC000A9210920FFF700F91846013105782833C7
:101FD000002DF2D0012412894470002144688170E0
:101FE0008161C161920800F12001051D21F8022BD9
:101FF000994245F8044B1444F8D10023436103701F
:1020000038BD00BF440A00200A4B1B89B3F5FF7F8F
:102010004FEA930006D25A089B1A9BB2984238BFE7
:1020200018467047B3F5EE6F01D8FF22F4E740F28F
:102030007263F3E7440A00202DE9F8434B788046A9
:102040000C4602F0040602F0FB07D3B1DFB12F4BC0
:10205000D4F804901D89BFBB01236370AD08A7614C
:10206000E76104F120034A46211D04F1280023F80A
:10207000025B984241F8042B2A44F8D100236361A3
:1020800001E0002FE3D0002E4FF0FF0318BF02261F
:10209000A370A3191B7D032B03D1022F1CBF013694
:1020A000F6B2A31901221A7506F10C0204EB86069A
:1020B000002324F812307268A370C8F80020A8F832
:1020C00004304046BDE8F883002114226170A01856
:1020D00010F082FAB5F5FF7F0FD26B08ED1AADB2A2
:1020E00009EB0502C4F804902584A2606384C4F857
:1020F0000C90A5842261E384C5E7B5F5EE6F4FF03F
:10210000FF03EBD940F27265EAE700BF440A002002
:102110002DE9F7431FFA82F81FFA81F904460F46AA
:1021200016462E214A46404611F0F8F905465CB1A4
:102130002E230146CDF800904246204611F0A0F92A
:10214000034B1C601F715E71284603B0BDE8F0832D
:10215000500A00202DE9F74305460C46F7200521DB
:10216000904611F0DBF9064685B115F0030703D060
:102170008F211920FFF728F8DFF83890C9F81050A0
:10218000A9F81400A5B2BBB29D4204D806FB04F026
:1021900003B0BDE8F083B9F814C0D9F81000CDF849
:1021A000008007FB0C000523F722314611F068F987
:1021B0000137E8E7600A002007B5CDE900230B46A8
:1021C00003490246081D11F0E8FC03B05DF804FB6A
:1021D000780A002013B5064CCDE900230B460246D1
:1021E00004F1080104F10C0011F0D7FC02B010BD9D
:1021F000780A0020024B0146D3E9002011F038BBD9
:10220000780A0020024B0146D3E9022011F030BBCE
:10221000780A0020134B012200214FF0FF309A6012
:10222000C3F80012C3F80803C3F80015C3F8042567
:102230009A60C3F80803C3F80015C3F804250A49D7
:102240000A4A03F580334FF40040C3F80825C1F86B
:102250008000BFF34F8FBFF36F8FC1F88001C3F8C9
:102260000825704700F0004000E100E00000F63F64
:102270008C46382300B50CF8033B054B8E4607CB44
:10228000CEF80300CCF80410CCF808205DF804FB6D
:10229000940A002070B5234DE96AAC6A0B7803F00C
:1022A0000303032B04F1A8041AD16B8E2A8E01209C
:1022B000034342F400626B8620746B6B2A86984756
:1022C000E96A237E013B18BF012323764B7833B1A3
:1022D000D4E92232013342F10002C4E9223270BD56
:1022E000002BEED04B78002BEBD02A8E42F400620C
:1022F0002A86AA6B002AF2D0FB2B08D895F83C302E
:1023000063B16B6B0021BDE870402020184795F841
:102310003D3043F0100385F83D3070BD012303705C
:10232000CFE700BF880A002010B5114C0BF022F84F
:102330000AF00AFB636B208E00219847237E4BB97D
:10234000236C94F83D1094F83E009847002384F8DD
:10235000443010BD94E8070004F10C0383E8070043
:102360000449022204F1190013F040FCE8E700BF21
:10237000880A002071220000034B93F8443003B90F
:102380007047FFF7D1BF00BF880A0020012923D87A
:1023900038B51C4DAB6C04469847D8B195F83D3024
:1023A000C3B995F8240010B11CB1002038BD012C30
:1023B000FCD195F84C30DC06C3F300110ED5002398
:1023C000AA6B92B1C0B16A8E920715D5AB6DDB785E
:1023D000022BEAD0012038BD012070472B6D1B78FD
:1023E000C3F30013C3F10103EAE7B5F85420002A50
:1023F000E8D00029EED0E5E7002BEBD16A8E002A69
:10240000D3D0E7E7880A002008B5094B93F84420A9
:10241000022A07D1DA7A42F00102DA72BDE80840F6
:10242000FFF782BF40F23D212720FEF7CDFE00BF1F
:10243000880A0020F8B5254CA66A236DE36296F859
:10244000CB30054606F1A80794F85C000BB10430C8
:10245000C0B296F871100DB9FF282ED00AF0E6FC34
:1024600097F823301BB3206E0BF0B0FB94F82430A8
:10247000216EE06A003B18BF012384F88030D7E961
:102480002223C4E91E230AF00BFA3DB996F8710025
:1024900010F00C0018BF28200BF002FC96F870100A
:1024A00000200BF065FC022384F84430F8BDE06A9C
:1024B0000BF08CFB0AF048FAE7E796F8702091429F
:1024C000D0D00AF0B3FC97F82330CBE7880A00207D
:1024D00070B57F4CA56A82B095F8CB20002305F13A
:1024E000A8068DF8053094F85C300AB10433DBB2ED
:1024F00010B9FF2B00F0B28095F87010FF200AF0A1
:1025000095FCB37D032B00F2DE80DFE803F0021DB3
:10251000807094F8C230ADF806306E48A5F860308F
:1025200007F0BCF8002840F0A180D4F8C4000DF1F9
:1025300005020DF1060111F01CF8A06520B196F816
:102540006130002B00F0A9806348A065F37DDB00BB
:1025500003F00802037803F0F3031343327E920082
:1025600002F00402134303F0EF0203F00303032B12
:10257000027002D1C378022B12D0D4F8C40011F03B
:1025800063F848B9A06D027802F00303032B07D06B
:1025900007F0AAF8002879D1A06D027842F0100265
:1025A000027096F8223013B14378002B43D10BF020
:1025B0000DFB0AF0C9F9A66D07F018FF20B13378BA
:1025C00003F00303032B64D095F8711001200BF086
:1025D000CFFBA36D414A18889978A4F84C000123D9
:1025E00084F8C830917084F8443002B070BD394826
:1025F00007F054F8002861D0A06DC3781B2BA5D13B
:10260000012105F110000AF047FCA06D9EE7B5F826
:102610006030D4F8C400ADF806300DF105020DF1BC
:10262000060110F0A6FFA06500288FD140F2D62148
:102630002720FEF7C9FD206E0BF0C8FA94F824108D
:10264000206ED6E92023B1FA81F67609A16D84F8CF
:102650008060C4E91E230AF023F9ACE795F87130D5
:1026600095F870108B427FF449AF4AE7638EA16DF5
:10267000626B43F08003802063869047A06D012148
:102680007174C3781B2B7FF461AFBAE7A06D027839
:1026900086E701200CF09CFA96E79DF805302BB1F7
:1026A000BDF8061013F05DFAA06D4FE7038083704C
:1026B000A06D012113F065F9A06DF1E740F2DF2173
:1026C0002720FEF781FD4FF43B712720FEF77CFDAC
:1026D000880A0020E00A0020180B0020D40A0020FD
:1026E0002DE9F041434C94F84420A56A012A82B0B8
:1026F00006460F4605F1A8055FFA82F874D12B7CD7
:102700006BB1638E002143F0040363862974636B0D
:102710000420984794F824300BB185F81280A16DFD
:102720000A7802F00302032A36D04B78EBB1022379
:10273000AB7595F82330F3B1A36A93F87110D5E91E
:102740002223C4E91E2394F8243094F85C20003B33
:1027500018BF0123013984F8803007293FD8DFE80A
:1027600001F03B133E113E3E3E380123AB7595F818
:102770002330002BE0D106B907BB02B0BDE8F04121
:10278000FFF7D2BD4FF00308002300931A494346D8
:1027900001200AF00DF8EEE7AB7D63B9638E43F0DC
:1027A000020363860220636B9847A16D0B7803F0E8
:1027B0000303032BB9D10323AB75BAE73146304687
:1027C000FFF7E4FD0028D8D102B0BDE8F041FFF7E3
:1027D00031BE4FF00208D7E74FF00008D4E740F2CF
:1027E000B9310620FEF7F0FC40F25C412720FEF7ED
:1027F000EBFC00BF880A0020F00A002070B50C4BEB
:102800000C4C0D4A1A6094F8443063B906460D46E4
:1028100003F0FF02012104F19000227613F0B1F8D9
:102820002665256670BDDF212720FEF7CDFC00BFA1
:1028300060000020880A0020F0300000044A92F86E
:10284000443003F0FF000BB9107670470C2070473E
:10285000880A0020024B012283F83C20704700BF09
:10286000880A00202DE9F043BA4C85B002AD85E816
:10287000030094F844100C98002940F0D481002AF9
:1028800000F0D181002B00F0CE81002800F0CB8138
:1028900001F0FF06206495E80300A36404F124031B
:1028A00083E80300A56A626384F83C6084F83D60B5
:1028B00084F8C96084F83E6084F8C860668626861D
:1028C0000AF04AFB0AF040F895F974000AF064FC3B
:1028D00005F1A807A86A0BF05DF9286A0AF062FC06
:1028E00097F833000AF068FC94F82430002B69D084
:1028F00004200FF027FFEA6941F64B539A4294BF38
:102900004D2096200AF066FAA36A93F8D832002B7D
:1029100040F01C8195F8711001200AF03DFE00285E
:1029200063D08D4B18680BF03BF96B69C4F8C43069
:10293000AB69C4F8CC3095F87F301BB9A96F00297A
:1029400040F0C380D7F89000D7F89410D7F89820BB
:10295000D7F89C30DFF804C2ACE80F00D7F8A030FD
:10296000C4F88130D7F8A430CCF80D30A36A94F8BD
:10297000241093F8C520A2F12600002938D101289F
:1029800003D993F8C600262838D193F81A2393F870
:102990007080002A40D0B8F1080F3DD0B8F1040F84
:1029A00000F02681082A00F02381042A00F020810B
:1029B000B8F1010F30D0012A14BF4FF002084FF0D8
:1029C000010829E003200FF0BDFEEA6941F64B53F0
:1029D0009A4294BF4D2096200AF0FCF995F87010A9
:1029E00000200AF0D9FD00289BD105B0BDE8F08396
:1029F00001287BD993F8C600262877D0213A012AEE
:102A000040F2CC80242800F0E78093F87080B8F181
:102A1000040F08BF4FF0080805F138094146484641
:102A200013F0A2F9414612F01FFCB5F8443095F8B6
:102A300071100246934228BF1346484684F8C230BC
:102A400013F058F995F8711097F82390B5F84C8069
:102A5000082908BF042112F007FCB9F1000F01D1C9
:102A6000043080B2404528BF40465FFA80F884F8C1
:102A7000D08007F0BBFC20B1B8F12B0F38BF4FF06E
:102A80002B0894F8241084F85C80002957D197F81B
:102A90002230002B3AD0012384F88030D7E920235C
:102AA000C4E91E2395F87030E86941F64B52013BAA
:102AB000904294BF04200020072B00F29C80DFE8A6
:102AC00003F01E9F9A1D9A9A9AA1B7F84E20BB8ACE
:102AD00093427FF437AFB5F87C201344A7F84E300B
:102AE00095F87E0001220CF057F82BE793F8B623F7
:102AF00093F87080002A7FF44EAF8DE70321002207
:102B00000B4600921549FB2209F052FE0120FFF707
:102B1000DFFC134BD3F8503523F00803032B00F0F0
:102B200087800023C4E90033A3602A88B98A97F814
:102B3000333061802280237105B0BDE8F08397F8BF
:102B400023307BB90120FFF775FCE2E70AF0F2F9C8
:102B5000E0E600BF880A002060000020F00A0020A4
:102B600000100040D7E9220195F871300122013BA5
:102B7000C4E91E0184F88020072B3CD8DFE803F06D
:102B800005443B043B3B3B46032600210091334672
:102B90002A494246012009F00BFED3E724281BD026
:102BA00000293FF432AF93F86E2193F870805007FC
:102BB0001ED412F001032BD193077FF52DAFB8F18E
:102BC000080F3FF429AFB8F1040F11D0B8F1010F8D
:102BD00018BF4FF002081FE700293FF416AF93F823
:102BE000691093F86E2193F870800A405107E0D580
:102BF0004FF0080810E740F2B9310620FEF7E4FA7A
:102C000001217CE702217AE70126BEE70226BCE724
:102C1000B8F1080F3FF400AFB8F1040F14BF9846A5
:102C20004FF00808F8E64FF4A8712720FEF7CCFA19
:102C30004FF4FD712720FEF7C7FA00BFF00A00200D
:102C400010B5184C94F84430EBB194F824308BB1A3
:102C500094F84430022B20D1A36AD3F8F0020AF092
:102C6000EDFFA16A91F87F3003F0FF020BB98B6F83
:102C700063B910BD94F84430012BF2D040F20F211B
:102C80002720FEF7A1FAFFF74FFBEAE791F87E0055
:102C9000BDE8104011460BF07FBF40F21321272002
:102CA000FEF792FA880A0020FFF73EBB014B187628
:102CB000704700BF880A0020014B93F8C800704796
:102CC000880A0020024B188EC0F38020704700BF96
:102CD000880A0020014B93F8C9007047880A002039
:102CE0002DE9F0411E4FBC6A820782B005460E46B0
:102CF00004F1A80411D4EB070CD5D4E92232217ECB
:102D0000013342F100020129C4E922320CBF002341
:102D10000123237602B0BDE8F081BB6BDBB1B7F8CD
:102D20005420F96A1846033291F801800FF0DCFB59
:102D30000DF1020201A9F862D7F8CC0010F039FDBC
:102D4000019810F020FD012230604146D7F8CC00F8
:102D500010F0C5FCCFE740F24D412720FEF734FAD2
:102D6000880A00202DE9F047B24C86B00023CDE957
:102D700004338DF80F3094F84430A56A022B0646D0
:102D80000F4605F1A8055FFA83F840F0A281238E73
:102D900013F0400106D1636B40209847238E43F027
:102DA00040032386002E5AD095F82330002B40F0A4
:102DB0001881D4F82CA09AF8011089B2A4F8541004
:102DC000002940F025810023A3639AF80000238E98
:102DD000E97DC0F3800243F480739142238600F0C2
:102DE000CC80A26A94F8241002F1A80999F8162060
:102DF000EAB1022A00F05381002389F8163021B18C
:102E000099F81220002A40F03F8199F81130002BE8
:102E100040F0168199F81730D4F82CA0012B0CBF84
:102E20000023012389F817309AF80000238E43F419
:102E3000806222862A7EC0F3C0039A424FF00009C6
:102E400000F0A28007F0D2FAC0B19AF8003003F087
:102E50000303032B12D101200BF0BAFE0EE095F80C
:102E60002320002A40F0B98043F40073238694F8AD
:102E7000C930013384F8C9304FF0000995F8223089
:102E80005BB394F82430A26AB3FA83F3D06992F862
:102E900070105B0984F8803041F64B53984294BF20
:102EA00004200020D5E920230139C4E91E23072985
:102EB00000F2E280DFE811F08E000800E0008B00F5
:102EC000E000E000E0000A004FF00108002200925C
:102ED00059494346FB2209F06BFC47B994F8C910E5
:102EE0000120FFF753FA0746002800F099800AF006
:102EF000ADFF01279DF80F307BBBB9F1000F08D063
:102F000094F82430002B59D1B4F809300133A4F8D7
:102F100009303EB3B4F8053000220133A4F805307F
:102F200084F8C920454807F061FD049840B110F0CD
:102F30002AFCA16A002343720822013012F044FEE9
:102F4000059B33B1A16A00221A720598102212F073
:102F50003BFE6FB906B0BDE8F08705A90220FFF778
:102F6000BFFECAE7B4F807300133A4F80730D9E749
:102F7000FFF7DAF906B0BDE8F0872A7EC0F3C00398
:102F80009A42B1467FF45EAF07F030FA00284AD08B
:102F9000D4F82CA09AF8003003F00303013B012B76
:102FA00041D89AF8012094F8D0309A423BD994F84D
:102FB0003D3043F0100384F83D3043E7B4F805306A
:102FC000B4F80710AA8A0B431343A2D09CE74FF032
:102FD00003087BE74FF0000878E709F01FFD238E18
:102FE00042E709F0E1FC09F0C3FCD4F82CA09AF800
:102FF000011000287FF4E1AE002942D09AF8003099
:103000002A7EC3F3C0039A425DD089B2A4F854105B
:10301000D4F8CC0010F039FBD4F82CA0A063D4E68F
:10302000FFF756FA66E70DF10F00FFF733F9D4F812
:103030002CA007E7880A0020F00A0020AC0A002034
:103040004FF0000A89F811A006F038FB00284AD09A
:10305000638E43F0080363865146636B08209847EC
:10306000D9F880300133C9F88030D9F8843043F181
:103070000003C9F88430CDE640F2B9310620FEF7EE
:10308000A3F8A4F854109EE689F812301946638E0E
:1030900043F0100363861020636B9847B5E6D4F8BD
:1030A000C40004A910F088FAC0B1D9F8803094F8AF
:1030B00024100133C9F88030D9F8843043F100037B
:1030C000C9F8843098E6012384F83E30FFF72CF9E4
:1030D00040E740F2CF412720FEF776F840F2CB31AF
:1030E0002720FEF771F840F2E2312720FEF76CF856
:1030F00009240000652D0000E1260000792300006E
:103100000B46062203F8032BB0F809C0C27AA1F8D7
:1031100003C09A70704700BF06230B70D0F80F30C1
:103120001A88A1F8032093F8CD304B71024B5B68ED
:1031300000229A67704700BF9C1300200B4617229D
:1031400003F8032BD0F809C0D0F80D20C1F803C054
:103150005A60704710B5392301F8033B00F10903A9
:103160002930D3F800E0D3F804C09A68DC68CC605A
:1031700010338342C1F800E0C1F804C08A6001F155
:103180001001EED11B880B8010BD00BF124B134AFB
:1031900033F8113003F2E733A2FB0323082900F1CF
:1031A000FF324FEA93134FEAC2120FD0042907D01F
:1031B000022914BFF0216021134401FB0030704745
:1031C00040F2BE21134401FB003070474FF4D2613E
:1031D000134401FB0030704734B20200D34D62103B
:1031E00030B5D928844628BF4FF0D90C0CF1300CEB
:1031F000BDF80C401FFA8CFCBCF1FF0F28BF4FF04C
:10320000FF0C04F0020514F00104864638D1002DAD
:1032100064D001F5A570082A00F01481042A00F09A
:10322000C580022A14BF4FF414714FF49671014403
:1032300012F00C0F40D1082A00F00C81042A00F093
:103240000C81022A14BF4FF4B070B4209C310144A9
:1032500001F19800B4BB002B00F0AC80082A00F00C
:103260003C81042A00F09981022A40F6480308BFF5
:103270004FF48563BEF1D90F184400F2428130BD8E
:1032800001F5A570002DC6D1002B42D1082A00F00F
:103290001C81042A00F09C81022A00F0B7810CF105
:1032A000050C1FFA8CFC282108250CFB051C12F0CC
:1032B0000C0F0CEB0001BED001F6144101F1980097
:1032C000002CC8D0082A00F0C180042A00F0C88071
:1032D000022A14BFC0236423184430BD01F5A57031
:1032E0002BB3082A00F04381042A00F07981022AD6
:1032F00040F6480308BF4FF48563BEF1D90F184468
:10330000BDD9AEF1D903C5499BB2F63381FB034168
:10331000FEE0082A00F0D680042A00F03B81022A51
:1033200040F6480114BF8C464FF4856CBFE7082A6D
:1033300000F01181042A00F05B81022A00F0048170
:103340000CF1050C1FFA8CFC282408230CFB034C01
:10335000BEF1D90F604492D9B149AEF1D90E1FFA2E
:103360008EFEA1FB0E31AEEB010301EB5301042AEB
:10337000C1F3C71146D1C1EB4113C1EBC303AEEB9F
:10338000030341F208329BB202FB0100002B3FF421
:1033900076AF03F1080292B205324FF4BF741021E8
:1033A00000F5A57302FB0142D01830BD40F2CE51AA
:1033B00001443DE77346F12B28BFF123082A53D07F
:1033C000042A00F0FE80022A00F01A8113339BB217
:1033D00028214FF0080C03FB0C13BEF1D90F184441
:1033E0007FF64DAF8E49AEF1D90E1FFA8EFEA1FBCE
:1033F0000E31AEEB010301EB5301042AC1F3C711F7
:1034000000F09280C1EB4113C1EBC303022AAEEB83
:10341000030E40F6921540F272541FFA8EF318BF55
:103420002C4604FB01000CBF18242824002B3FF479
:1034300026AF0833022A9BB203F105020CBF042118
:103440000821ADE741F2D0210144F1E64FF4CA630F
:10345000184442E74FF43560F8E640F2EE30F5E606
:1034600040F2AE23184438E713339BB200EB8310CD
:10347000BEF1D90F00F5C8707FF601AF684AAEF112
:10348000D90E1FFA8EFEA2FB0E32AEEB020302EB48
:103490005302C2F3C712C2EB4213C2EBC303AEEB3B
:1034A000030E44F2DA311FFA8EF301FB0200002B07
:1034B0003FF4E5AE03F1080292B205324FF4C8744E
:1034C00040216DE744F2902CF1E60CF1050C1FFA57
:1034D0008CFC4FF4C8714025E7E601F58640BEF14B
:1034E000D90F00F128007FF6CAAEAEF1D9024B4BDE
:1034F00092B2F63283FB02131344DB1144F2DA3149
:103500000FE0AEF1D901454B89B2F63183FB01439F
:103510000B4440F6921440F27251DB11022A18BF9C
:10352000214601FB030030BDC1EB4113C1EBC303D6
:10353000AEEB030E41F208321FFA8EF302FB0100DC
:10354000002B7FF426AF30BD0CF1050C1FFA8CFC6C
:1035500018240423FAE60CF1050C1FFA8CFC00EB8E
:103560008C13BEF1D90F03F5C87087D887E644F2F3
:10357000DA32BEF1D90F01EB02007FF680AEAEF178
:10358000D901264B89B2F63183FB01430B44DB1191
:103590001146C6E741F2BE1C89E601F59250BEF124
:1035A000D90F00F116007FF66AAEAEF1D9021B4BBF
:1035B00092B2F63283FB02131344DB1141F208315D
:1035C000AFE713339BB24FF4BF714FF0100C02E71B
:1035D0000CF1050C1FFA8CFC4FF4BF71102564E64A
:1035E00041F20832BEF1D90F01EB0200C7D830BD5D
:1035F0000CF1050C1FFA8CFC4FF4BF741023A5E6E8
:1036000013339BB218214FF0040CE4E60CF1050CC7
:103610001FFA8CFC1821042547E600BFC9F9A984CC
:1036200091F3530900B5082983B040D0042935D05F
:10363000022945D0053328214FF0080E90F805C027
:1036400003FB0E1E90F844100CF1FF3007283CD805
:10365000DFE800F02A333B043B3B3B044FF0020C15
:10366000D301CA330EFB02321D4B9A4232D81D4899
:1036700001F03F01A0FB023241F040010020C2F303
:10368000073361F30700C2F3071262F30F2043EA26
:103690004C1363F3174003B05DF804FB05334FF49C
:1036A000BF714FF0100EC9E74FF0000CD8E705339B
:1036B0004FF4C8714FF0400EC0E74FF0010CCFE758
:1036C000053318214FF0040EB8E740F2EF21062031
:1036D000FDF77AFD40F28C712D20FDF775FD00BFDE
:1036E000C3BF0300898888882DE9F043314ED6F89E
:1036F00000C0DCF80F300B624FF000089CF815306A
:1037000062F3070862F30F2815469CF814201B0487
:1037100043EA02239CF8132013438B6283B00746CD
:10372000BCF819000C4611F0FEFD3368E0618146DB
:103730004946987D11F004FE336820864946B3F867
:10374000170011F010FE3368E062B3F81B20A2846A
:10375000B3F81D20E28493F8242002F01F0284F8BD
:10376000D920D3F81F00009093F823308DF804304F
:10377000694604F1CD0011F04DFE336893F8243012
:10378000A4F870805B0984F8D932FF2315F00C0F80
:1037900014BF0121002104F1380084F8723006F0D2
:1037A0007FFD97F91410204611F0A6FD03B0BDE887
:1037B000F08300BF5C0B0020F8B544888C460546BA
:1037C00014F00401134618BF05F177016246C07F6B
:1037D00006F040F9C207044606D4A30712D484F0C9
:1037E0000400C0F38000F8BD012385F86830E87F4D
:1037F00006F094F90368C5F869308388A5F86D3040
:10380000A307ECD5084E0127306885F8767005F1DE
:10381000770111F0DDFE3068394611F0E9FE84F0E1
:103820000400C0F38000F8BD5C0B00200B4613229F
:1038300070B503F8032B0C4600F109022930166815
:1038400055689168D2F80CC0C3F80CC0103282429F
:103850001E605D60996003F11003F0D112781A7058
:10386000A6880125A57129463046FEF795FA48B18C
:10387000E27842B1008805F0D1FE29463046FEF7D5
:10388000A1FA20B970BDBDE8704012F005BF40F24A
:1038900042212D20FDF798FC1323F7B50B70002370
:1038A000CB7083691A888A80054601228A71D8699B
:1038B0000C4611F025FDAB6960839A8CA283DA8CEB
:1038C000E28393F8D92284F82020FF2284F8212073
:1038D0006A69128962845A7A012A04F10E012ED192
:1038E000DA7B02F0C002402A29D1D3F80A20C4F8BA
:1038F0000E20DB898B80154B5868436D6361B0F8EF
:1039000058302383AF69BE78E671002306226946EA
:1039100054300093ADF804300EF080FD10B146F045
:103920000206E671D7F80330A360B7F80730A38129
:10393000A86940B103B0BDE8F04012F0ADBE00236D
:10394000C4F80E30D6E703B0F0BD00BF9C130020D2
:1039500070B504460D46C869164611F0D1FCAB8C13
:10396000A4F8A630EB8CA4F8A830A4F8A400A37F98
:1039700095F8D92284F8AA201BB194F86830012B5D
:1039800024D00022C4F89820A4F89C201F4B1B6868
:103990001A78C2F3801284F89120082ED3F80320FD
:1039A00023D0C4F89E20B3F80730A4F8A23004F165
:1039B000920204F19101304606F01CF808B394F825
:1039C000913043F0020384F8913070BD94F86E306A
:1039D00003F0C003402BD4D1D4F86920B4F86D3083
:1039E000C4F89820A4F89C30D0E7C4F89220B3F82B
:1039F0000710A4F896100023C4F89E30A4F8A23053
:103A000070BD40F64A412D20FDF7DEFB5C0B002027
:103A10000B46162203F8032BD0F80920C1F8032027
:103A2000CA7890F80DC083F804C01AB130F8AC3CE5
:103A30001B0700D5704710B5B1F80540012120469D
:103A4000FEF7AAF938B1008805F0E8FD012120460B
:103A5000FEF7B8F900B910BD40F286212D20FDF720
:103A6000B3FB00BF2DE9F0438A4D8B4AAB6A87B0A8
:103A70005B680292894A03920026894A6E71044665
:103A800080F8816002A8CDE904232E82AE60AE7179
:103A90000AF086F809F060FA0AF050F908F012FE10
:103AA000804809F07FFB80480AF074F804F1300781
:103AB00030460EF047FE384602F0AEFC384602F0C3
:103AC000B1FC09F079FB2179252009F0AFF994F9CF
:103AD000140009F061FB2179304609F05DFDE860D2
:103AE00028B901232B71002007B0BDE8F08304F151
:103AF0005001E06C0FF0C0FF04F158010646E06C85
:103B00000FF0E1FF07463EB194F82480B8F1000FB2
:103B100002D04FF0010903E0002F5CD1B846B9464E
:103B2000A37F13B9638859071BD5D4E918236FF015
:103B300000418B4208BFB2F1FF3F54D012F09FFF0B
:103B4000D4E91823904271EB03034CD34146012280
:103B50002046FFF731FE00284FD1B9F1000F40F0A9
:103B60009480002E08BF3E4694F88330002B71D11C
:103B7000002E6FD12868033005F05AFF6388A874BF
:103B8000DB07B0D50023266ACDE900330122FF23ED
:103B90008DF8062085F8203006F10A076846FEF702
:103BA00033F900289FD1009CA642F7D0727A607A40
:103BB0003B4604F10A0111F04CFA0028EED0A3783C
:103BC00085F82030D4F80320C5F82120374BB4F80D
:103BD00007209A8087E794F82580B8F1000918BF7C
:103BE0004FF001099CE7B9F1000FBAD0012211464C
:103BF0002046FFF7E1FD002847D005F0F5FE80469E
:103C000012F03DFF4FEA4813B3EB08034FEAD862C6
:103C100062F10002520242EAD3525B0213EB080344
:103C200042F1000C4FEA8C1E9A014EEA936ED31AB1
:103C30006EEB0C0213EB080342F100021B1842EB7F
:103C40000101C4E91831002E08BF3E4694F88330C4
:103C5000002B8DD06388DA068CD4666CC6F30B26F5
:103C600006F0CAFBC0F30B039E42F9D094F846302D
:103C700084F84500C0F3032123F00F030B43002217
:103C800084F8463084F8832074E740F614212D2010
:103C9000FDF79AFA5C0B002069510000694D0000A5
:103CA000214A0000D6BE898E555555007D0B002057
:103CB0002DE9F047032984B00446164640D090F819
:103CC000803023B10025284604B0BDE8F0870529DF
:103CD00067D0464F97F812804FF00109B8F1000FF6
:103CE00039D13378082B70D0396894F86F2011F8E7
:103CF000030B04F17003C0F3801011F0AAF93968C6
:103D0000054611F8030BC0F3801011F0CDF982467F
:103D100005F016FF0746002830D13378082B4FD026
:103D2000002D34D063885907CDD4002FCAD1B8F103
:103D3000000F53D1637D0BB14B45C3D10125C2E7C1
:103D400043889A07BED5294F97F812804FF0020991
:103D5000B8F1000FC5D011F0B1F90828307034D097
:103D600002AA0DF1070105F045FE002838D09DF8A4
:103D7000070002A912F053FB8046B2E7BAF1080F20
:103D800013D13378082B1BD00027002DCAD1E57F33
:103D9000ED1A6388B5FA85F559074FEA551592D49F
:103DA000C3E74388DB0794D48CE7504605F0ECFD6D
:103DB00033780028E6D1082B84D0002DB2D1E6E775
:103DC000638858073FF57FAFB1E7396811F8030BF7
:103DD000C0F3801012F023FB804685E7454672E76A
:103DE00040F63D712D20FDF7EFF900BF5C0B002080
:103DF00070B51A4904460222843011F0E5FE1849D4
:103E0000022204F1BC0011F0DFFEB4F88E6094F8D9
:103E10008D5005F067FA80B9637C227884F8B82069
:103E2000A4F8B96084F8B7509BB90E4984F8BB3048
:103E3000022204F1AE0011F0C7FE0B4B0B4A1B68C7
:103E40000021117143B1206A21460222BDE8704071
:103E5000184794F84830E8E770BD00BF2D380000DF
:103E600001310000113A00006C0000205C0B0020C2
:103E70002DE9F04FB0F802A08DB01AF00303074609
:103E80000491934604D0012B02D0022B40F093837F
:103E90000AF00702052A4FF0000500F0BB80022A55
:103EA0001BD0002A40F02982BBF1000F40F0918224
:103EB000B7F85420944E0AF023010A4300F080839F
:103EC0001AF020040ED13A7912F00C0F0CBF012227
:103ED000002202924FF0010908E0BBF1000F40F010
:103EE0005A82894E00244FF0010902941AF04008CA
:103EF00040F0D881CDF80490029A306862F3000552
:103F000064F34105019A69F3C30562F304154FF0A8
:103F1000000A68F34515A0F800A0BBF1000F40F0BF
:103F2000A781DA460721059311F029FB00230393AB
:103F3000059B64004FEA48181946306811F093FC5D
:103F4000029B3068039A234343EAC909019B49EA6B
:103F5000031949EA080848EA8A1A25F07B050AF09D
:103F60007B0A4AEA050A514611F084FC1AF0010F57
:103F700055465FFA8AF440F0BA80A1070ED5049B3B
:103F80003068002B00F0AD8107F177010623012294
:103F900011F03FFC3068012111F02AFB14F00403FA
:103FA00040F05C83220700F14581A30600F1AE805A
:103FB000BBF1010F40D0019B63F30415A906ECB2DD
:103FC00000F14F81620613D5BBF1000F00F09B8218
:103FD0007D7997F8441097F91420284611F0E0F9FC
:103FE00001238DF818000622306806A911F011FC93
:103FF000F06948B1403012F0DDFB28B1F36993F865
:10400000BD30002B40F04A82230600F122830DB020
:10401000BDE8F08FBBF1000F3FF463AF01243A4ECF
:1040200002944FF000081AF0400A40F0BE81CDF82B
:1040300004A04FF001095FE7B7F85430002BBAD065
:104040007B889C07B7D4306811F009FCB7F854207E
:10405000348A431CDBB2141BC3F1FF018C42A8BF9E
:10406000DC43E4B2A24280461FFA84F940F20C829B
:104070007B88D80700F108824AF01005039A30685F
:104080002946033C11F0F6FBE4B208F10403234493
:10409000B7F848205FFA83F8F3681344B7F8402173
:1040A0001A4492B207F1690107F1360011F0CAF91A
:1040B0007A7987F84400082A00F0C481042A00F0C5
:1040C000C182022A00F0B7824FEAC803013A503396
:1040D00000F03F00072A00F26782DFE812F06A0270
:1040E00065026502B901650265026502B9013068C1
:1040F00007F169010623002211F08BFB97F8681085
:10410000306811F06CFA38E75C0B0020F469D7F8DE
:104110004031D7F844910293002C00F0FB8104F168
:104120004008226E636E05924046049312F042FBF3
:10413000DDE9043268B1F16991F8BD1049B140463A
:10414000CDE9042312F088FBDDE90423002800F008
:104150002682206F94F810C0B649DDF808E031F8E7
:104160001C10D6F814C01CEB0E0849F10009B2EB84
:104170000808B14A01F2E73163EB0909A2FB0131FA
:10418000D7F83431890911EB0808A3EB0C0C49F17D
:1041900000094FEAEC73C44573EB09034FF00002CA
:1041A0009DF81D3080F2D68062F38613B8F5161F95
:1041B0008DF81D3079F10003C0F2B0819DF81D30FB
:1041C00062F345138DF81D30BDF81C306FF30C03FE
:1041D000ADF81C30994BA3FB0030800AADF81E00EF
:1041E000E27E9DF8243062F30403D4F8172008928D
:1041F0008DF8243005F0C4F89DF8243060F347139F
:104200008DF824309DF81D306FF3C7138DF81D30E5
:104210002268B4F85230CDF8252022798DF8292073
:1042200062798DF82A200133A2798DF82B20ADF820
:104230002C30BDE67A6C3068C2F30B2262F30B03BC
:1042400097F84620ADF81C301209C3F3072362F338
:1042500007138DF81D300322022307A911F0D9FAA4
:10426000A3E630681223052207A911F0D2FAA9E6C5
:1042700064004FEA48180721039311F080F9F069B0
:10428000039B68B1403012F095FA039B40B1F2698C
:1042900092F8BD20002A0CBF00220A2203924BE6AE
:1042A000039049E6B7F85420002A58D03A7912F022
:1042B0000C0F0CBF4FF0010A4FF0000A029A306851
:1042C000CDF8049062F3000564F3410569F3C3057A
:1042D00069F304154FF000086AF38615A0F8008012
:1042E00020E607F170010623012211F092FA97F8F7
:1042F0006F10306811F07CF950E6012A7FD0062A51
:104300003FF488AE042A40F0AE81BBF1000F00F00C
:104310001E814B4EB06930B14030019312F04AFA21
:10432000019B804648B9F069002800F06381403065
:10433000019312F03FFA019B80463A7912F00C0F7C
:104340000CBF002401241AF0200F0CBF22460022CB
:10435000029268E623F060038DF81D3034E77A8816
:1043600002F02302002AA1D1B06930B1403001939C
:1043700012F020FA019B002898D1F06930B140304A
:10438000019312F017FA019B00288FD1002B8DD1D9
:104390004FF0010A92E74FF0000801221AF0400A9C
:1043A000274E029244463FF442AE029A306842F0F1
:1043B000480545EA440545EA481500224FF0010A40
:1043C00064004FEA481805F06B0502800192D1465F
:1043D00051E71B4EB06908B34030019312F0EAF97F
:1043E000019B8046D0B11AF0200440F0AD803A79AC
:1043F00012F00C0F14BF01220022029213E6BBF14F
:10440000000F40F0C28091463A790D4EA2F10202AF
:10441000B2FA82F2520902925C4667E5F06900281E
:1044200000F0B1804030019312F0C4F9019B804646
:10443000D9E700BF34B20200D34D62105917B7D18B
:104440005C0B00204FEA881303F5347300F03F0043
:104450000221874A03F5A573A2FB03231A0B42EA44
:10446000411240F040001B098DF818008DF81A2009
:104470008DF8193030680323042206A911F0C9F918
:1044800001231FFA84F90193396D3068224611F037
:1044900025FA338A9944A6F810908CE507213068F4
:1044A00011F0D6F90922322302704370F369714981
:1044B000D3F890308370F369D3F89020120AC27059
:1044C000F369B3F892300371F36993F89330437151
:1044D000F36993F8A1308371F369D3F89420A1FBB9
:1044E0000232920AC271F369D3F89830A1FB032318
:1044F0009B0A0372F369604AD3F89C30A2FB032342
:10450000DB08437280E507F130003D7902F02EF8B8
:10451000014660E5B469D4E918231AE6B8F5703F9E
:1045200079F100039DF81D3027DB43F020038DF85F
:104530001D304FF49671BDF81C30B8FBF1F868F3EC
:104540000C03ADF81C3045E6002402946BE5B7F887
:1045500054204A4E0AF023010A4355D01AF0200F86
:104560003A7949D012F00C0F4FF000020CBF012431
:10457000002402924FF00109B8E462F345138DF86C
:104580001D301E21D7E780462DE73A793B4E023A8F
:1045900018BF01224FF000080292444643E5206F05
:1045A000821843F10003D5E540F2EF210620FCF725
:1045B0000BFE00214DE740F276612D20FCF704FE52
:1045C000B06938B14030019312F0F4F8019B002833
:1045D0007FF476ACF06938B14030019312F0EAF81C
:1045E000019B00287FF46CAC4FF0000901224C467F
:1045F00002927BE48046A0E612F00C0F0CBF012271
:10460000002202921446B5E7B06930B14030019300
:1046100012F0D0F8019B0028A0D1F06930B14030F1
:10462000019312F0C7F8019B002897D101244FF0A5
:10463000000902945AE44FEA88032C3300F03F004B
:10464000012106E74FEA081303F5E77300F03F0086
:10465000FEE640F6C3012D20FCF7B6FD40F65E01F4
:104660002D20FCF7B1FD40F219712D20FCF7ACFDB7
:10467000898888885917B7D1D34D62105C0B002008
:104680002DE9F047044684B090F844000D4608F048
:1046900093FD6179FF2008F0C9FBA5B98C4D28680E
:1046A00010F06BFF2779064604F1300001F04CFF53
:1046B000082F5DD0042F00F00081022F7DD0053639
:1046C0002821082358E0002062794FF4A57109F0F1
:1046D00029FA6388980743D5D4F85890B4F85C80D9
:1046E000C3F3801600277A4D28684FF0000AA0F81F
:1046F00000A0072110F043FF2868514611F0B3F8DD
:10470000FB0043EA861739462868524611F0B2F892
:10471000390700F1B480286811F0F6F82B8AC0F14F
:10472000FE00A8EB03068642B4BFF6B2C6B233441D
:10473000984556DC63885A0643D4298A286832464D
:10474000494411F0CBF8288A06442E82286809F0E3
:104750003DFA072201232A716B7104B0BDE8F0878E
:10476000D4F85090B4F85480C3F380160127BAE708
:1047700005364FF4C871402306FB0316EB686288C8
:1047800003EBC011CA3100FB06111607696102D59F
:10479000AB68194469616279002009F049F8002882
:1047A00000F0908063889B0740F0828094F8761038
:1047B00001222046FFF75CFBC8E7053618210423D9
:1047C000DAE794F9142094F84410607910F0E8FDC9
:1047D00001238DF808000622286802A911F019F8B3
:1047E000ABE747F010010022286811F043F8286871
:1047F00011F08AF82E8AC0F1FE00A8EB0608804569
:10480000A8BFC6B22868B8BF5FFA88F611F027F8CB
:10481000B4F84830EA681A44B4F840311A440746FC
:1048200004F1690192B204F1360010F00BFEBB19DD
:104830000133617984F84400DBB201222046FEF79F
:10484000F1FE8DF80C00C0F30723C0F307408DF88C
:104850000E008DF80D30039BADF808301B0C8DF861
:104860000A30029BADF8043004221B0C8DF8063090
:10487000286803230DEB020110F0CBFF5AE7636CAD
:104880002868C3F30B22BDF80C3062F30B0394F8D5
:104890004620ADF80C301209C3F3072362F3071367
:1048A0008DF80D300322022303A910F0B2FF32E786
:1048B0006179012009F05CFA78E705364FF4BF71A1
:1048C000102359E740F6B2512D20FCF77DFC00BFC4
:1048D0005C0B0020F0B51F4D0446002383B0303040
:1048E0002B826B7101F030FE6688F1062DD4B20781
:1048F00021794CBFB4F85C70B4F85470FEF746FCF4
:1049000000960146627901233846FEF769FCB4F847
:104910004820AB680132A4F848200344AB6005F09E
:104920006BFD0D4B94F87610A3FB00235B0AAA687D
:10493000C3EB0323A0EB8300831800222046AB6067
:1049400003B0BDE8F040FFF793BA2822314601F0EA
:1049500069FEDCE75C0B00208180808038B52E4D3D
:10496000B0F84830AA7C01330446A0F84830B2B908
:1049700000232B7194F881305BB9637C1BB1B4F8D0
:1049800048209A4212D220460021BDE8384003F068
:1049900023B920460121BDE8384003F01DB909F0D4
:1049A000CDF907F08FFE0023AB74E1E7012120462B
:1049B00003F012F96388DB070FD5236A1D8804F022
:1049C00091FC68B9637C217884F8B8104322A4F87C
:1049D000B95084F8B720A3B111E004F083FC00B112
:1049E00038BD637C207884F8B8004FF0FF32432153
:1049F00084F8B92084F8BA2084F8B7100BB194F881
:104A0000483084F8BB3004F1AE000449BDE83840BA
:104A1000022211F0D9B800BF5C0B0020113A00004F
:104A200060B951B1074A1379916AD06A096903F1F3
:104A30008043043B51F8233018477047014BD86A34
:104A4000FFF78CBF5C0B00202DE9F047032984B0F1
:104A500013D005290BD17E4B1B68002B62D09847E1
:104A600080F00100C0B204B0BDE8F0872046FFF737
:104A700075FF002004B0BDE8F08708230DF10302A4
:104A800004468DF80330FFF713F90028EED0237C9D
:104A9000002B40F095806F4D678828680026BB0981
:104AA000068007214FF0010863F3861810F067FDB8
:104AB0003146286810F0D7FE04F1690932462868AB
:104AC000414610F0D7FE324606232868494610F0CA
:104AD000A0FE94F86810286810F081FD286810F096
:104AE00013FFB4F85C30C0F1FE008342B4BFDEB205
:104AF000C6B2B342C7F380171FFA86FA14D8002F44
:104B00007FD1A16D2868324610F0E8FEA5F810A00C
:104B10006179FF2008F08AF9082328682B7109F0D1
:104B200055F8A6E718469EE748F0100A51460022BD
:104B3000286810F09FFE286810F091FEB4F8483005
:104B4000EA681A44B4F84031A6F103081A44023E58
:104B50000644494692B204F1360010F073FCF6B2F6
:104B6000617984F84400334601222046FEF75AFD5D
:104B70008DF80C00C0F30723C0F307408DF80E003A
:104B80008DF80D30039BADF808301B0C8DF80A3002
:104B9000029BADF8043004221B0C0DEB02012868C7
:104BA0008DF80630032310F034FE5FFA88F8514682
:104BB0002868002210F05EFE1FFA88FA46469EE73B
:104BC0009DF8030094F8D030002B7FF464AF237875
:104BD00084F8D130082824D004F1D30204F1D201A2
:104BE00004F008FF70B394F8D2301A4D43F002037A
:104BF00084F8D2301849022204F1C80010F0E4FF12
:104C00004AE794F9142094F84410607910F0C8FB36
:104C100001238DF808000622286802A910F0F9FD8A
:104C20006FE70C4D29680B4613F8032BC2F3801273
:104C300084F8D220D1F80320C4F8D3209B88A4F8AC
:104C4000D730D7E740F6BA712D20FCF7BDFA00BF88
:104C5000640000205C0B00203D3100002DE9F04194
:104C600082B008230DF10702052104468DF80730B4
:104C7000FFF71EF800286BD06279216A2046FEF704
:104C800033FD216A002384F88D300888A4F88E0053
:104C90004FF6FF73FF2284F8AB20A4F8AC309DF8E8
:104CA00007202046FEF754FE236A2D4A198815680E
:104CB000A4F8C51093F8CD2084F8C72025B1184674
:104CC00001222146A847236A264D2868D0F80320F0
:104CD000C3F80320B0F80720A3F807200678D4F81B
:104CE00020800027C6F3801688F80260082107801C
:104CF00010F045FC2868394610F0B5FD28683A46A2
:104D00004FF0030110F0B6FD3A460623286804F17F
:104D1000690110F07EFD94F86810286810F05FFCBF
:104D20002868314610F064FC06230122286808F147
:104D3000030110F06EFD6179FF2008F077F8286814
:104D400008F044FF092301202B7102B0BDE8F08177
:104D50002046FFF703FE012002B0BDE8F08100BF4E
:104D60006C0000205C0B0020F0B54D4C2379022B29
:104D700085B003D02379032B40F08680E36A1D6A57
:104D80000DB195F8755088B9A37C1BB108F0D6FF1A
:104D900007F098FCE06A02F045FD40B308F0EAFA3B
:104DA000A36A9B6805B0BDE8F0401847216893F8F6
:104DB000682011F8096B6933F00910F04AF90028EE
:104DC000E2D006F00F06052E206827D0294610F005
:104DD00035FC0028D8D02379E06A022B0DD0237946
:104DE000032B0AD040F6C5412D20FCF7EDF9E06A0F
:104DF00005B0BDE8F040FFF7B1BD2379A26A03F129
:104E000080435269023B314652F823309847A37CD5
:104E1000002B3ED10028BDD105B0F0BD90F8243064
:104E200003F01F03102BD1D9E76AFB7C002BCDD0F8
:104E300008230DF10F02314638468DF80F30FEF78A
:104E400037FF0028A0D097F8E130002B9CD12168D3
:104E500007F1E202CB1C23311E685D689868D3F825
:104E60000CC0C2F80CC010338B42166055609060C5
:104E700002F11002F0D11B8813800A49022207F1C7
:104E8000D90010F0A1FE7FE740F6EC412D20FCF7A1
:104E90009BF9019008F052FF07F014FC0198B9E764
:104EA0005C0B0020553100002DE9F04104460E4610
:104EB000002940F08E80704D286894F876700023A9
:104EC00003806388103B0D2B00F2C780DFE803F0FE
:104ED0007CC5771EC507C5C5C5C5C5C5C5070121A4
:104EE00010F04DFB2868037823F0200343F02003E3
:104EF0000370002F00F0948004F1770110F068FB3C
:104F00002868012110F074FB286809E0002110F0E6
:104F100036FB2868037823F0200343F02003037056
:104F200004F1690110F04DFB94F86810286810F046
:104F300056FB638823F008039BB2152B05D094F829
:104F40005420216D286810F05AFB286808F03EFEB6
:104F500004232B71F6B16388102B6CD004F1300858
:104F60004046EF6801F0F0FA0646404601F0C8FA04
:104F7000013E301A61882822C0B201F07DFB6388AF
:104F80001B0707445CD422793946002008F050FC06
:104F900000286CD06388103B0D2B63D8DFE803F04A
:104FA0000D620707620762626262626262072179CC
:104FB0000120BDE8F04108F0DBBEBDE8F08106212C
:104FC00010F0DDFA2868ABE7022110F0D8FA286863
:104FD000A6E700F13007384601F092FAA8B96388D5
:104FE0001A0735D5384601F0AFFA0546384601F0C4
:104FF00087FA281AC0B2204D01F038FBAB68034491
:105000003846AB6001F008FA00E01B4D384601F06D
:1050100009FA08F0D1F82179252007F007FF4BE7BE
:1050200004F1700110F0D4FA286894F86F1010F0B1
:10503000DFFA286874E72179002008F0CBF8A9E7A7
:10504000AB681F4401F0EAFA3844C4F818019AE743
:105050002046BDE8F041FFF781BC40F249612D20B8
:10506000FCF7B2F840F675512D20FCF7ADF840F68C
:1050700061512D20FCF7A8F85C0B002038B543885F
:10508000102B1FD0124DAB7C044663B9286808F082
:105090009DFD608810F004000BD0002008F000FE99
:1050A00002232B7138BD07F0EFFA402008F03AFEDA
:1050B000ECE7217908F05CFE002008F0F1FD022306
:1050C0002B7138BDBDE838400121FFF7EDBE00BFB0
:1050D0005C0B00200121FFF7E7BE00BF0121FFF7B5
:1050E000E3BE00BF38B543889A0704460CD4DB07FB
:1050F0000AD41C4AB0F85430128A9A422DD0BDE826
:1051000038400121FFF7BCBA00206179154D08F045
:105110002FFE6388617913F0020F14BF0C20222048
:1051200007F084FEAB7C03222A715BB9607910F032
:105130000C0018BF282008F0B3FD2868BDE83840EF
:1051400008F044BD07F0A0FA637913F00C0F14BF08
:105150004520402008F0E6FDE8E7BDE83840FFF7CD
:10516000FDBB00BF5C0B002010B5164CA37CF3B94F
:10517000E06A02F057FBA8B1E06A438803F0180325
:105180008BB12379022B02D02379032B14D12379FD
:10519000A26A03F18043D268023BBDE8104052F896
:1051A00023301847E06ABDE81040FFF7D7BB08F08E
:1051B000C5FD07F087FADBE740F6F4312D20FCF758
:1051C00003F800BF5C0B002030B50B6883B0002BE8
:1051D00051D00C460546184601F0B6F994F810E097
:1051E000627CBEF1040F3BD0254B264933F81E30BC
:1051F000042A03F2E73323D0A1FB03134FEA931CE5
:10520000BEF1080F00F1FF334FEAC31325D0BEF102
:10521000020F14BFF0216021634401FB0031A38819
:10522000009328460023FDF7DBFFD4E90223D730A3
:10523000824273F100032CBF0120002003B030BD77
:10524000A1FB03234FEA931CBEF1080F00F1FF33CB
:105250004FF008024FEAC313D9D14FF4D261DBE714
:10526000431E042A4FEAC3134FF02C0CF5D1082239
:105270004FF4D261D0E740F2FD312D20FBF7A4FFBF
:1052800034B20200D34D62102DE9F04F90F8803017
:1052900087B0002B3DD1458815F00105044638D074
:1052A000774E03F0FF0AB37C002B40F0C6803168D4
:1052B00011F8030BC0F3801011F0B1F84FF008099A
:1052C0008346316894F86F2011F8030B04F17003E2
:1052D000C0F380100FF0BDFE3168074611F8030BD4
:1052E000C0F380100FF0E0FE804604F029FC01902E
:1052F00018B1B8F1080F40F08680B9F1080F00F03E
:10530000AF80638857B95A0740F18A80E37F4B45E5
:1053100006D00025284607B0BDE8F08F5B077FD593
:105320003168584B11F8030B96F82020C0F3801019
:105330000FF08FFE07460028EBD1216A33681A78F8
:1053400091F8CD3003EA521303F0010381F8CD3018
:1053500001222046FEF7C8F9216A84F88D70FF23E8
:10536000088884F8AB304FF6FF73A4F8AC304A4697
:10537000A4F88E002046FEF7EBFA4349022204F11E
:10538000840010F021FC236A40491A88A4F8C52043
:1053900093F8CD3084F8C730022204F1BC0010F03D
:1053A00013FC236A1F8803F09DFF88B9637C227871
:1053B000A4F8B97084F8B70084F8B820002B56D14F
:1053C000334984F8BB30022204F1AE0010F0FCFB3C
:1053D000304B1B680022327113B1206A2146984776
:1053E0003368226AD3F80310C2F80310B3F8071029
:1053F000A2F807101B78226AC3F380132846937023
:1054000007B0BDE8F08F404604F0BEFA019B0028CB
:105410007FF473AFB9F1080F3FF47BAF9A4670E7A2
:10542000BAF1000F7FF475AFBBF1000F7FF478AFD6
:10543000637D012B3FF66DAF72E70FF03FFE08284A
:1054400081463FF434AF04AA0DF10F0104F0D2FA03
:1054500080B19DF80F0004A910F0E1FF834630E70A
:1054600063885907E0D5002F3FF453AF58E794F80D
:105470004830A5E740F63D712D20FBF7A5FE00BFA3
:105480005C0B00207D0B00202D3800000131000056
:10549000113A00006C00002038B5344DB0F85C3093
:1054A0002A8A9A4205D00121FFF7EAF808232B71D6
:1054B00038BDB0F84830AA7C01330446A0F8483023
:1054C000B2B900232B7194F881305BB9637C1BB1B6
:1054D000B4F848209A4212D220460021BDE8384054
:1054E00002F07ABB20460121BDE8384002F074BBCF
:1054F00008F024FC07F0E6F80023AB74E1E7012193
:10550000204602F069FB6388DB071DD403F0EAFE46
:105510000028CDD1637C207884F8B8004FF0FF32AA
:10552000432184F8B92084F8BA2084F8B7100BB16D
:1055300094F8483084F8BB3004F1AE000C49BDE863
:105540003840022210F040BB236A1D8803F0CAFED7
:105550000028ADD1637C217884F8B8104322A4F8E8
:10556000B95084F8B720002BE4D0E1E75C0B0020B1
:10557000113A00002DE9F047032984B00CD0052929
:1055800046D1684B1C681CB1A04780F00104E4B20E
:10559000204604B0BDE8F08743880546980737D514
:1055A000614EB37C002B38D1316811F8030BC0F386
:1055B000801010F034FF4FF008088146316895F8EC
:1055C0006F2011F8030B05F17003C0F380100FF08A
:1055D00040FD3168074611F8030BC0F380100FF04F
:1055E00063FD824604F0ACFA044638B1BAF1080F04
:1055F00004D0504604F0C8F9002875D0B8F1080F5F
:1056000041D000246B88DFB95A0766D4002C3DD006
:105610000124204604B0BDE8F0870FF04FFD0828B4
:105620008046C1D002AA0DF1070104F0E3F9002879
:105630006ED09DF8070002A910F0F1FE8146BDE78B
:105640005B07E3D52B7C4BBB30680024048004212E
:105650000FF095FF306805F169010FF0B2FF95F882
:10566000681030680FF0BBFF95F85C20A96D3068BA
:105670000FF0D4FF30680523337108F0A7FA2046F5
:1056800004B0BDE8F0876B8859072AD4B9F1000F40
:10569000D8D16B7D13F0FD0FBAD1D3E795F8D03098
:1056A000002BD1D12B7885F8D130B8F1080F1FD05D
:1056B00005F1D30205F1D201404604F09BF960B335
:1056C00095F8D23043F0020385F8D2301749022210
:1056D00005F1C80010F078FAB6E7EB7F434597D1A3
:1056E000B0E7002F94D0ADE7B8F1080F8AD14FE7AB
:1056F00031680B4613F8032BC2F3801285F8D220D1
:10570000D1F80320C5F8D3209B88A5F8D730DDE772
:1057100040F63D712D20FBF757FD40F6BA712D2064
:10572000FBF752FD680000205C0B00203D310000BB
:1057300008B590F88C3043B990F8C4302BB990F884
:10574000B63003F0FF0013B908BD012008BD03F017
:10575000C9FD80F00100C0B208BD00BF10B5094806
:10576000037913B10C24204610BD03F0FF0424225A
:10577000214604300CF030FF08F0E0FA06F0A2FFFA
:10578000204610BD5C0B002010B50E4C0023237189
:105790002379206023B140F21E312D20FBF714FD48
:1057A00003F0FF012422201D0CF016FF08F0C6FABA
:1057B00006F088FFA36A03B110BD40F221312D200D
:1057C000FBF702FD5C0B002030B54FF4AC7285B0E6
:1057D00004460D4600210CF0FFFE42F21073FF213B
:1057E0001322E38421706280FCF7E2FB0022014671
:1057F000E0646846FCF720FCE06C002201210EF01A
:105800001EF9E16C04226846FCF716FC0022E06CED
:1058100011460EF014F904F13000257500F0DAFDA0
:1058200002A804F0DDFA30B102A904F136000FF04D
:10583000F1FD05B030BD40F23A312D20FBF7C4FC3C
:10584000FF23C86C0B700EF0C7B800BF014B024AB3
:105850009A6270475C0B0020BC630000054A064951
:10586000064B074810B4074C1460074A10BC086088
:105870001A607047680000206C000020640000205F
:10588000617B0000895200005D4C00000078FF3809
:1058900018BF0120704700BF70B5044682B0303099
:1058A0000D4600F051FE6388D9062ED49A0794F86D
:1058B00004E01B4A1B4932F81E20844602F2E732FC
:1058C0004CBFB4F85C00B4F85400A1FB02120CF118
:1058D000FF36BEF1080F4FEA92124FEAC61611D0FA
:1058E000BEF1040F18D0BEF1020F14BFF0216021E9
:1058F0000093324401FB0C212B466279FDF770FCCA
:1059000002B070BD4FF4D261F2E72822194602B00E
:10591000BDE8704000F086BE40F2BE21E8E700BF5F
:1059200034B20200D34D62102DE9F043044683B037
:1059300071BB554D0A4690F87610FEF799FA286823
:105940000379DA0658D5C3789B0655D00FF015FEBB
:10595000064604F13000277900F0D2FD421C3346A0
:105960003946D2B22046FDF75DFE0246C2F307413A
:10597000C0F307208DF8042004228DF805008DF86F
:105980000610286803230DEB02010FF042FF32E0FE
:1059900000F13008404600F0B3FD002833D0404607
:1059A00000F040FD384D07F007FC2179252007F075
:1059B0003DFA28680379D9062CD4EF680FF0DDFD95
:1059C0008146404600F0C0FD0646404600F098FD86
:1059D000013E311A1FFA89F22079C9B200F0F2FDB6
:1059E00063880744180739D422793946002007F024
:1059F0001FFF002842D0286808F0E8F806232B7122
:105A000003B0BDE8F08363881F0731D5404600F03E
:105A100003FDC4E7C3789E06CFD00FF0AEFD064667
:105A20004046277900F06CFD421C3346D2B239461D
:105A30002046FDF7F7FD0422C0F307238DF804008C
:105A4000C0F307408DF805308DF806000323286861
:105A50000DEB02010FF0DDFE2868AEE7AB68012117
:105A600020461F44FFF718FF3844C4F81801BBE76D
:105A7000204603B0BDE8F043FEF770BF40F69151F9
:105A80002D20FBF7A1FB00BF5C0B00204388092BF6
:105A900000D0704710B50446FEF71CFF20460121D8
:105AA000BDE81040FFF740BF10B5094CE06A4388DD
:105AB000092B04D0BDE810400121FFF7F5B9FEF72E
:105AC00009FFE06A0121BDE81040FFF72DBF00BFCC
:105AD0005C0B002038B5354C23797BB32379E56A1C
